:020000021000EC
:10C0000000800020D5C6010011C7010013C7010040
:10C010000000000000000000000000000000000020
:10C0200000000000000000000000000015C7010033
:10C03000000000000000000017C7010019C7010040
:10C040001BC701001BC7010085EE01001BC70100D3
:10C050001BC70100000000000DE701001BC7010025
:10C060001BC701001BC7010081E901001BC70100BC
:10C070001BC701001BC701001BC701001BC7010034
:10C080001BC7010071EF01001BC701001BC70100A6
:10C090001BC7010091F10100110602001BC701003E
:10C0A0001BC701001BC701000000000000000000CA
:10C0B0000000000000000000000000000000000080
:10C0C00010B5064C2378002B07D1054B002B02D06E
:10C0D000044800E000BF0123237010BDA028002009
:10C0E00000000000186A020008B5084B002B03D0BE
:10C0F0000748084900E000BF07480368002B03D049
:10C10000064B002B00D0984708BDC0460000000039
:10C11000186A0200A4280020A028002000000000C7
:10C12000164B002B00D1144B9D46402292029A1AC6
:10C13000924600218B460F461348144A121A06F005
:10C1400069FA0F4B002B00D098470E4B002B00D004
:10C1500098470020002104000D000D48002802D05F
:10C160000C4800E000BF06F0DFF92000290000F0D5
:10C17000FDFC06F0C3F9C046000008000080002066
:10C180000000000000000000A0280020EC35002086
:10C19000000000000000000070B51D1CC37F041CDF
:10C1A0005E1901201D2E13DC2818E054E37F0133B3
:10C1B000DBB2E377E154E07F111C0130C0B2E077DD
:10C1C0002A1C201806F004FAE37F0020ED18E5771A
:10C1D00070BD08B50368011C021C0A3134321B6DA6
:10C1E000984708BD38B50123041C03700D1CC01806
:10C1F000211C031C113100221A7001338B42FAD129
:10C20000012362822370291C102206F0E1F9AB7829
:10C21000EA781B021343201C638238BD08B500680E
:10C220000368DB68984708BD08B5006803685B6968
:10C23000984708BD10B5FFF7F1FF041CFFF7C9FFD1
:10C24000211C08C9201C5B6D984710BD08B5024829
:10C25000FFF7F0FF08BDC046D0280020F7B51C1C32
:10C2600008AB0E1C151C1F78FFF7DEFF0368009754
:10C27000DF68311C2A1C231CB847FEBDF0B5274AD5
:10C280000388D68B89B09E4246D1254D03AC281C2D
:10C29000FFF7CAFF0368311C5F686B460A33221C34
:10C2A000B84721781F4B204F002905D16278002A1A
:10C2B00002D1A07800281BD0FF260125711A00208A
:10C2C0001D7000F085FA6178281C711A00F080FA60
:10C2D000A1780220711A00F07BFA144B2278F98BB6
:10C2E0001A7062780E485A70A2789A7000950FE022
:10C2F000FF21187000F06CFA0120FF2100F068FAAD
:10C300000220FF2100F064FA0123F98B281C00931E
:10C31000221C0323FFF7A2FF09B0F0BDD82800209C
:10C32000D0280020D4280020442900200C280020F8
:10C33000F0B51D4B85B0187803AC002818D11B4D03
:10C34000FF2629780127711A1F7000F041FA6978D9
:10C35000381C711A00F03CFAA9780220711A00F01A
:10C3600037FA2B7823706B786370AB78A37010E08A
:10C370000025281CFF211D7000F02AFA0120FF2152
:10C3800000F026FA0220FF2100F022FA25706570E5
:10C39000A570074B221CD98B00230093054803236B
:10C3A000FFF75CFF05B0F0BDD42800200C2800206A
:10C3B00044290020D02800207FB50D20012100F065
:10C3C000C3FA0020011C00F003FA0120002100F054
:10C3D000FFF90220002100F0FBF90320021C58495C
:10C3E00000F074FB574C201C00F0B4FB201CFFF73E
:10C3F00015FF554B4366201CFFF716FF051C202038
:10C4000004F078FE002202604260021C031C083225
:10C4100018300021117001328242FAD14B4A9961E1
:10C42000D9611A606A698A4200D0DA616B61201CA6
:10C43000FFF7F4FE6A4604230B320121051C13703A
:10C440000A300B1CFFF7A8FE002802D1281CFFF7BA
:10C45000C0FE201CFFF7E2FE3D4E051C08210A30FD
:10C46000321C0323FFF798FE002802D1281CFFF797
:10C47000B0FE201CFFF7D2FE0721051C354A0A300A
:10C480001023FFF789FE002802D1281CFFF7A1FE28
:10C49000201CFFF7C3FE00230371201CFFF7C4FE1E
:10C4A00003682D491B689847201CFFF7B7FE0368F7
:10C4B000311C5B6B9847201CFFF7B0FE036804211A
:10C4C0005B6C9847201CFFF7A9FE0368051C9B685E
:10C4D0009847A023984204D92B68281C9B6898474A
:10C4E000031CFA20800058431C4906F0F7FCE88042
:10C4F000201CFFF793FE002303AD0381FF21181CCE
:10C500002B706B70AB7000F063F90120FF2100F01D
:10C510005FF90220FF2100F05BF9114B2A1CD98B37
:10C5200001230093201C0323FFF798FEFF21032221
:10C530000C4806F06FF8201CFFF77CFE7FBDC0465C
:10C5400031C30100D02800204DC201007DC201008E
:10C55000645F0200345F0200C42900207102000001
:10C56000442900200C28002008B5034B18680368F4
:10C570009B6A984708BDC046D0280020F0B587B018
:10C5800000F092FB484B01AE18604849301CFFF7A1
:10C5900029FE474C3378651C2370738A6946638291
:10C5A00005311022281C06F013F8424B0C21012201
:10C5B000E977A11C636122831423A283CA77221C1A
:10C5C0002832638300231370221C29321370221C2B
:10C5D0002A32E383636213702363E2183432002744
:10C5E00001331770102BF8D16764A764E7622765E1
:10C5F000E3195433002501371D70102FF8D16566FB
:10C60000A566E5642C49301CFFF7ECFD2B4C337814
:10C6100069462370738A053163823A1C284805F005
:10C62000D7FF284B14222649628312226361CA77FE
:10C630000123A21C2383A383D377231C28331D70DB
:10C64000231C29331D70231C2A33E58365621D706A
:10C65000256363193433002701351F70102DF8D17D
:10C660006764A764E7622765E3195433002501373F
:10C670001D70102FF8D16566A566E564301C12495F
:10C68000FFF7B0FD114C337869462370738A601C44
:10C69000638205313A1C05F09BFF022323750C4B86
:10C6A000A583A36107B0F0BDD0280020445F02003D
:10C6B000D8280020B0290020685F0200442900200B
:10C6C00045290020BC280020545F0200C429002016
:10C6D000042800200848026803210A430260074931
:10C6E000074A084B9B1A03DD043BC858D050FBDCBB
:10C6F000054880470548004724050040246A020099
:10C7000000280020A02800201DC7010021C1010031
:10C71000FEE7FEE7FEE7FEE7FEE7FEE7234B10B588
:10C720001A78181C012A12D1214B1B6819070ED147
:10C73000204BF0221B68E024191C1140234204D135
:10C740001D4B1B68134202D120E03029F8D003783A
:10C75000012B0DD1164A1268110709D1154A11682B
:10C76000F0221140402903D113490968114215D024
:10C770008022A323D2050121DB00D1500F4B0020E2
:10C78000986091609A68002AFCD00DE00C490D4A2F
:10C79000116080210C4A09021160D8E7C122802172
:10C7A000D200C9058B50E3E710BDC046E00F00F092
:10C7B000E40F00F0E80F00F0EC0F00F0FC00004088
:10C7C000DFFF07C004050040186C004000000000B7
:10C7D000F0B589B0071C0C1C03F032FF061C701C5E
:10C7E00004D153485349822201F0A0FE524B00214C
:10C7F0005956B1420AD001229A56B24208D09B78CB
:10C800005BB2B34206D001310AD124E0002302E03A
:10C81000012300E00223494A1078082806D10DE0E0
:10C8200001321AD001337AD1022517E0082802D943
:10C830000838C44002E00822101A844007AD2B706B
:10C84000201C07F09DF93E4906F0A0FC011C281CA5
:10C8500002F0BCF963E0002500E001250195002C01
:10C860000ED13548FF23019A435507A8027002F004
:10C8700049F9381C012100F067F8381C211C2DE013
:10C880002E4B187808F04AFF021C0B1C274926483B
:10C8900004F096FC02900391201C08F03FFF234B0C
:10C8A000214A049005910298039908F0CFFB021CDD
:10C8B0000B1C0498059906F095FB002811D01E4822
:10C8C000FF234355019B6A4607A8137702F01AF924
:10C8D000381C012100F038F8381C012100F05CF808
:10C8E0001DE0019A68460277311C07A802F000FAA1
:10C8F000124B1878082806D002D90838C44002E044
:10C900000823181A8440201C07F03AF90C4906F055
:10C910003DFC011C07A802F059F9074B5E5509B010
:10C92000F0BDC046C046C046000000000000004008
:10C93000785F02008F5F02000F280020122800207D
:10C9400000007F43C046C04630B587B00C1C03F0E2
:10C9500077FE051C431C04D10D480E490F2201F03F
:10C96000E5FD6B461D70012C06D0002C04D0022C76
:10C970000BD10021032501E0211C0025684601F0B0
:10C98000A7FE6846291C01F09DFE07B030BDC046D9
:10C99000785F02000560020038B50D1C03F050FE00
:10C9A000041C431C04D109480949232201F0BEFD9F
:10C9B0000122A023A240DB05141C002D02D0A121DE
:10C9C000C90000E003495C5038BDC046785F0200F2
:10C9D000056002000C050000F7B501290ED0022900
:10C9E0006CD1A223A022DB00D205D7580378012204
:10C9F000DF4017400197324E00253DE0A223A022E0
:10CA0000DB00D205D25803782D4FDA401140019156
:10CA10000026A025A224ED05E4002A59DA40944618
:10CA20006146012211408C4601998C4506D0295956
:10CA3000D940114000220191944604E0711C8C46BB
:10CA400020498E4204D8013F002F37D06646E0E7E8
:10CA5000C0211D4E4900402777502959D940114225
:10CA60002CD0C36927E06F1CBC46164FBD4218D8B6
:10CA7000013E002E22D06546A024A221E405C90073
:10CA80006258DA409446674601221740BC46019F2F
:10CA9000BC45E8D067580021DF40174001978C461D
:10CAA000E6E7C025084E40276D0077516158D94010
:10CAB000114203D1036A002B00D09847F7BDC0464E
:10CAC0009F8601008813000000E100E0F8B50F1C0C
:10CAD000161C03F0B5FD051C431C35D0002F33D0C8
:10CAE000B31E022B30D824224243184B9A18022E30
:10CAF00001D1D76107E0042E03D10021D761116273
:10CB000002E00020D061176224246C431C19291C08
:10CB10000F4A231C201C01F073FE201D291C01F06C
:10CB200088FD201C022E06D101210A1C01F098FE6E
:10CB3000201C311C05E00221042E02D101210A1C17
:10CB400000E0012201F08CFEF8BDC046E42900207F
:10CB5000D9C9010008B5006803681B68984708BD7B
:10CB600008B5012005F0CAFC7047704708B5FFF70B
:10CB7000FCFFFFF7F9FF03F05DFD08BD084B1B68E4
:10CB80001818EFF30882904205D3064B0C220120BF
:10CB90001A60404202E0024A1060181C7047C0460A
:10CBA00014280020E835002008B5002800D1FEE751
:10CBB00001F0D8FCFBE766DF704748DF70470000F4
:10CBC000014B0833036070478060020008B5FFF72F
:10CBD000F4FF08BD10B5044B041C0833036004F0D7
:10CBE0009DFA201C10BDC0468060020008B500F010
:10CBF000BBFA08BD08B500F0B7FA08BD08B500F0EB
:10CC0000A7FE08BD08B500F0A3FE08BD08B500F0FA
:10CC100017FC08BD08B501F05FF808BD08B501F0C4
:10CC20005BF808BD08B501F02DF9002008BD08B576
:10CC300003F0CEFC421E9041404205230340181CE5
:10CC400008BD0000134B37B51A781D1C124C002A82
:10CC50001DD16846FFF7AFFF002813D169464B8806
:10CC6000592B0FD10A788B88072A03D1201C202149
:10CC70000A4A02E00A4A201C202105F0CDFD0123CA
:10CC80002B7004E0201C0749202205F0FEFD201C2B
:10CC90003EBDC046642E0020442E0020C06002002D
:10CCA000D6600200F460020000487047402E002069
:10CCB00008B5044B044808330449054A036004F0EE
:10CCC00045FA08BD80600200402E0020C1CB010063
:10CCD0000028002070DF704771DF704772DF7047F7
:10CCE00073DF704774DF704775DF704776DF70471A
:10CCF00077DF704778DF704779DF70477ADF7047FA
:10CD00007BDF70477CDF70477DDF704786DF7047D1
:10CD100087DF704788DF7047022070470220704726
:10CD2000002070470020704700487047FFFF000058
:10CD3000022070470220704702207047022070478F
:10CD4000022070470220704702207047022070477F
:10CD5000022070470220704702207047022070476F
:10CD600002207047002313607047022070478166DD
:10CD700070471420704764207047A02080017047DE
:10CD80001FB50C1C10220021684605F043FC6846C4
:10CD900001780123A27999431A400B1C13430370B5
:10CDA0002388038163884381A3888381FFF7AEFFD3
:10CDB000002800D0032004B010BD08B5FFF7A8FF7D
:10CDC000421E9041404205230340181C08BD00004C
:10CDD000F0B50D78061C87B00C1C0220012D25D063
:10CDE0004B88032D06D1A03B114A9BB2934205D933
:10CDF00003201BE0203B9BB20E4AF7E7A7880E4BAF
:10CE00009F42F5D818226846002105F003FC63888C
:10CE10006A466846157013825782FFF761FF002843
:10CE2000E6D15836337801221343337007B0F0BD92
:10CE3000603F0000E03F0000FF3F000010B5041C11
:10CE4000FFF750FF021C0320002A06D1201C583097
:10CE5000037801218B430370101C10BD30B589B0DD
:10CE60001C1C68466B461A70013006220C9D05F0AA
:10CE7000AFFB02AA002C07D023881380638853805D
:10CE8000A3889380E38806E03223138064235380D1
:10CE9000962394809B0004A90878D380FC23034048
:10CEA0000B7000234B609D4206D02B880B816B8852
:10CEB0004B81AB888B8105E0FA235B000B81C82393
:10CEC0004B818D816846FFF725FF031C00208342BC
:10CED00015D0082B12D005D80720042B0FD0834281
:10CEE0000AD107E00520112B09D0064A934201D050
:10CEF000102B01D1042002E0092000E0062009B037
:10CF000030BDC04602320000031C583310B51C78F7
:10CF1000FC20204018703B239A4200D01323081CA9
:10CF2000191CFFF7E3FE002800D0032010BD08B550
:10CF30000A1C0368011C9C3109881B6A984708BDBC
:10CF400008B5081CFFF7DCFE002800D0032008BD50
:10CF500008B5081CFFF7D2FE002800D0032008BD4A
:10CF600008B5081C111CFFF7BFFE421E904140424D
:10CF700003230340181C08BD37B568460D1C141C5C
:10CF8000FFF7AAFE032300280FD1002D02D06A4626
:10CF900013782B70002C07D06946201C0131062223
:10CFA00005F016FB002300E0231C181C3EBD08B54D
:10CFB000081C111CFFF7A8FE421E904140420323AB
:10CFC0000340181C08BD08B5081CFFF793FE421E5D
:10CFD0009041404203230340181C08BD08B5081CBB
:10CFE000FFF78AFE42425041404203230340181C8F
:10CFF00008BD08B5081CFFF77BFE0023984203D04C
:10D000000523112800D00323181C08BD024B0B6018
:10D01000092313607047C046D061020008B58166DD
:10D0200001200A1C011C02F0C3F808BD37B511230A
:10D0300001AD081C2B700C1C05F020FC211C82B2D9
:10D04000281CFFF75FFE421E90414042032303402D
:10D05000181C3EBD13B50324A1420ED86B4668468A
:10D0600019700130111C062205F0B2FA0020694641
:10D07000FFF730FE002800D1041C201C16BD38B577
:10D080000C1CC97F151C01201F2911D800290ED0A6
:10D09000D37F0022934200D02A1C201CFFF71EFEE3
:10D0A000002804D1208CFFF725FE002800D00320A3
:10D0B00038BD00002B4BF7B5061CA02203600A36D2
:10D0C0000023011CC280041C03710381321C29311E
:10D0D0000023137001328A42FAD180258021C901D0
:10D0E000AD00201C0A1CF37735842C300093271CDC
:10D0F00003F024FB3437211C3A1C533100231370F6
:10D1000001328A42FAD1221CFB7754321079FC2179
:10D11000014015801171E36523666366A366E366CB
:10D120002367231C7433303200251D700133934272
:10D13000FAD1231C0833DD67201C80331D600421D5
:10D14000E5668C3003F02EFB291C301C1F2205F0F5
:10D1500061FAF577381C291C1F2205F05BFAFD7770
:10D16000201CFEBD0861020038B50F4D0F4C2B6826
:10D17000DB0717D4281C03F0D7FF002812D0201C8F
:10D18000FFF798FF0A4B012208332360231C524209
:10D190009C33281C1A8003F0D6FF201C0549064A40
:10D1A00003F0D4FF201C38BD082F0020682E00207B
:10D1B00068610200C9D10100002800209C30018074
:10D1C00070479C300088704710B5044B041C036006
:10D1D0008C3003F01BFB201C10BDC0460861020010
:10D1E000022070470220704790DF704795DF70473C
:10D1F00097DF704742300078431E9841C0B27047B5
:10D2000088239B00C15070478C239B00C1507047FE
:10D2100052300078431E9841C0B2704708B5081CD0
:10D22000111C1A1CFFF7E2FF031C0020834204D0EC
:10D23000113B584243410620C01A08BDF0B585B0E5
:10D2400001AC0F1C151C00210C22201C1E1C05F01B
:10D25000E1F90B9B0A9A281C211CA36027706680A9
:10D26000E280FFF7C5FF0023984208D0112805D0BF
:10D27000044A831858424341063300E00523181C32
:10D2800005B0F0BDFCCFFFFFF7B501930368041CA8
:10D290005B680E1C171C9847051C0620002D2ED11C
:10D2A000019B089963631422E761201805F090F947
:10D2B000201C09991422203005F08AF9231C3D33E3
:10D2C000A680013B5D70FF2201211A71301C1D7088
:10D2D00099712A1CFFF788FF061C281C002E0ED00F
:10D2E0002368201C9B689847112E07D0044B9E4250
:10D2F00002D00620072E02D1042000E00520FEBD4A
:10D300000230000013B5049C10300094059C019479
:10D31000FFF7BAFF16BD0000F8B5421C0023837169
:10D320000383D377374A81630260021C3C32011CBD
:10D3300043864031137053709370D370FF220A708C
:10D340004A70021C42321370031C041C4533BD306A
:10D3500000215A1E1D1C11701035191C00220A7064
:10D360000131A942FAD1191C113118330A804A80BF
:10D370008A808342ECD1261CEE21BC364900671816
:10D38000351C00212422281C05F044F915225219CD
:10D39000A81B311D0023944643546A1D00231370BB
:10D3A00001326245FAD141184B822B766B83AB83F5
:10D3B000EB832B842435BD42E3D1EE225200A350EF
:10D3C000F021FA22490052006318A118002204C378
:10D3D0008B42FBD1FC235B00BC61FE21E250872223
:10D3E000490092006318A118002204C38B42FBD1AC
:10D3F000FC21490063185C6288239B00201CE250DA
:10D40000F8BDC046E8610200036810B55B68041C03
:10D410009847231C423300221A70904206D088237A
:10D420009B00E358934201D0A088984710BD08B5EF
:10D43000FFF7EAFF08BD08B51030FFF7E5FF08BDAC
:10D44000004870470C2F002008B50449044B081C05
:10D45000083310300B60FFF75FFF08BD0C2F002072
:10D46000F8610200A0DF7047A4DF7047A5DF7047B6
:10D47000A6DF7047A8DF7047A9DF7047022070471A
:10D480000220704702207047022070470220704738
:10D4900002207047022070470020704773B5151CAA
:10D4A00002680E1C009394682B1C321C0149A04793
:10D4B00076BDC046FFFF000037B5069C00200090F7
:10D4C00020886D462880081C111C6A460193FFF7CE
:10D4D000CDFF0323002802D12B882380031C181CB6
:10D4E0003EBD000073B5151C06AA0E1C117802681B
:10D4F0000093019114692B1C321C0149A04776BD91
:10D50000FFFF0000F8B503680F1C161C9D69041C82
:10D51000FFF72AFEFFF755FE3A1C011C331C201CA6
:10D52000A847F8BD38B5074B041C036040680028C5
:10D5300004D0C56903F0F2FD281CF8E76060201CE8
:10D5400038BDC0462862020010B5041CFFF7EAFF90
:10D55000201C03F0E3FD201C10BD000038B5074B74
:10D56000041C03604068002804D0C56903F0D6FDA0
:10D57000281CF8E76060201C38BDC04638620200F5
:10D5800010B5041CFFF7EAFF201C03F0C7FD201CA8
:10D5900010BD000038B5074B041C0360406800282C
:10D5A00004D0C56903F0BAFD281CF8E76060201CB0
:10D5B00038BDC0464862020010B5041CFFF7EAFF00
:10D5C000201C03F0ABFD201C10BD0000084B10B563
:10D5D000041C03601830FFF7DDFF201C1030FFF73C
:10D5E000BDFF201C0830FFF79DFF201C10BDC0466A
:10D5F00058620200F0B5D48B42791E1C85B000231E
:10D60000934218D2DD0045197C352D88A54210D1F2
:10D610000F33DB00C3186C461A890E3402232380B3
:10D62000036803AD00949F682B1CB847021E04D00A
:10D630000DE00133E4E7042009E023880620022BF3
:10D6400005D12B88101C9A0701D00123337005B037
:10D65000F0BD0000F0B589B001930FAB141C1F782A
:10D660000D1C061CFFF780FDFFF7ABFD00230293A6
:10D670000EAB1B886A461381019B0393002F13D1C5
:10D68000737900E001379F420ED2FA00B2187C3263
:10D690001288A242F6D10A37BF00F6197368302209
:10D6A0000133DB7F134207D1281C211C02AAFFF79C
:10D6B000DBFE002826D128E0A842F5D01022134036
:10D6C0005A42534104A901338B70019A00238B8085
:10D6D0000EAB0C80CA608B60FFF7CAFE80B20028D8
:10D6E00013D0082810D00A4B98420DD011280BD027
:10D6F000084B984208D0281C211C02AAFFF7B4FE50
:10D70000002801D0032000E0052009B0F0BDC0468C
:10D71000033000000134000010B50278002A09D15E
:10D720000C78131C002C13D1428A4B8AD31A5A420C
:10D7300053410CE00023012A0AD10A78012A07D1BB
:10D7400001300131102204F034FF43424341DBB287
:10D75000181C10BDF0B5051C97B0081C0C9100F00A
:10D76000BBFD6C463E34109010A90120221CFFF72F
:10D7700079FE002801D00320BCE023880C990B908F
:10D780008B830C9A0B98137D834213D90C9A0B98B8
:10D79000926983009C586169002910D1238B002B6A
:10D7A0000DD1631CDB7F022B09D10B9B0133DBB254
:10D7B0000B93E6E72B79002001332B719AE0201CB4
:10D7C00000F08AFD002610900D960A96231C28333F
:10D7D0001B78B3421AD9626AB3009F58002311AA7A
:10D7E000137011A9CA18002001335070102BF8D102
:10D7F000414B381C4B82FFF78FFF002803D07B6919
:10D80000BF8B0A930D970136F6B2DFE76069631CA0
:10D81000DA7FA31CDB7F0090218B0D980191618B37
:10D82000049002910A9900200391211C2931097862
:10D830000591211C2A310978069169790F31C900B7
:10D8400069180431079110A900F098FD002892D1C1
:10D850006B79071C1A1C0A3292000F33AA18DB00DE
:10D860005460EB189B88E3836B7901336B71231C45
:10D8700028331B78BB4298D9616ABB005E5811AA55
:10D880000023137011A9CA18002001335070102B07
:10D89000F8D1194B301C4B82FFF73EFF0A9000284D
:10D8A00025D1301C00F018FD718B10909E20400097
:10D8B0007269338B0091295C0A989C314900691880
:10D8C0000631019110A900F007FE002800D052E7B0
:10D8D0009E2149006A5C531CDBB246326B549200B5
:10D8E0009C33AA185B005660EB18DB88F3837B1C23
:10D8F000DFB2BCE717B0F0BD0129000038B54469BC
:10D900000D1C002C11D02368002B02D0281C984736
:10D9100009E06068002806D0A369002B03D0211C11
:10D9200008312A1C9847E469EBE738BD08B5031CA9
:10D93000101C042905D0052905D0032907D11B6A2D
:10D9400002E05B6A00E09B6A002B00D0984708BDAC
:10D9500070B52E4E012533682D4C1D4053D1301C1F
:10D9600003F0E2FB00284ED02A4B2571A3602A4B1E
:10D9700065712361294BE560A361294B656108331B
:10D980002360E56125626562A5622B1CE218002513
:10D990000433D562502BF9D160197C300021082264
:10D9A000083504F037FEA02DF6D1221C0023FC32EE
:10D9B000136253629362D362136353639363D363BB
:10D9C0009E225200A3549F225200A352A022520032
:10D9D000A352A1225200A352A2225200A352A32278
:10D9E0005200A352A4225200A352A5225200A352D5
:10D9F000A6225200A352301C03F0A5FB201C0949AB
:10DA0000094A03F0A3FB201C70BDC04690320020E1
:10DA100040310020286202003862020048620200A1
:10DA200078620200CDD5010000280020F0B50B88F7
:10DA300091B001900C1C512B4CD00AD8012B2AD04C
:10DA4000502B00D029E1C888019902904A7900231F
:10DA500011E0522B37D0532B00D01EE1C88805218E
:10DA6000029044E00198D900411880310988029859
:10DA7000814203D001339342F4D30AE001990A337F
:10DA80009B00CB185A683021531CDB7F0B4200D01F
:10DA9000EDE002212BE00D7A0199CC68002C00D139
:10DAA000FBE02368002B02D0281C984709E060683F
:10DAB000002806D0A369002B03D0211C08312A1CA2
:10DAC0009847E469EAE7888800210A1C0B1CFFF7E5
:10DAD000D3FCE2E08B79012B06D0022B00D0DCE0F6
:10DAE0000B890721029302E00A890621029201981C
:10DAF000002743799F4200D3CFE00198FA008218B3
:10DB00007C3212880298824211D1062963D00729FB
:10DB10000FD0022900D0A5E0029A0CA90A80237A2E
:10DB20008B70A38B8B80E38B2034CB804EE001374E
:10DB3000E0E708AD00211022281C04F06BFD029BD9
:10DB4000201C2B80E38B22306B80238C00210390E0
:10DB5000A86010220CA8AB800A3704F05BFD0223FA
:10DB6000019A9F40D7197E680CA90B70331C2A3389
:10DB70001A7800239A4215D04C363368002B02D015
:10DB8000281C984709E07068002806D0B369002B6C
:10DB900003D0311C083108AA9847F669002EECD151
:10DBA00008AB9B89684683860CA9A088FFF762FCB6
:10DBB00069468B8E002B70D1029A05A90A80A37A40
:10DBC0008B70E38B8B80238C039CCB808C600198C3
:10DBD000FFF794FE61E008AD00211022281C04F03C
:10DBE00019FD02980CAE2880A38B00211022301C56
:10DBF0006B800A3704F00EFD0199BF00CF197F68D2
:10DC0000012333703B1C29331A7800239A4214D025
:10DC10002C373B68002B02D0281C984709E0786815
:10DC2000002806D0BB69002B03D0391C08312A1C00
:10DC30009847FF69002FECD1AB89B380AB89002BEB
:10DC40000BD1AB68002B08D0B27901210A43B27125
:10DC50006A883281AA88F3607281A088311CFFF73C
:10DC600009FC1AE00198029AFFF760FE15E0A11C7A
:10DC7000C87F0134E17F000208439C0602D50321DE
:10DC8000840707D40421DC0604D501210840414261
:10DC900041410331D28B0198E6E711B0F0BD4160FC
:10DCA000704781607047C160704701617047416192
:10DCB000704708B5081C111C1A1C029B00F04EFA94
:10DCC00008BD08B5081C111C00F0C2FA08BD08B553
:10DCD00000F0AAFA08BD000070B50B4E01253368AC
:10DCE0000A4C1D400ED1301C03F01EFA002809D04A
:10DCF000074B6560A560E56025616561301C2360A8
:10DD000003F021FA201C70BD9432002098320020CC
:10DD1000A862020070DF704771DF704760DF7047F4
:10DD200008B502F02FF908BDF0B5041C8BB001F066
:10DD3000B3FD201C00F0FEF8208810380B2800D915
:10DD400096E005F0C1F80637959595529595955C46
:10DD50009565A688FFF708FA311CFFF72FFA201CFB
:10DD600016300190FFF700FA051C2B1C627B58331C
:10DD70001F78009202221743207DA1791F702B6E1D
:10DD8000002B75D06A46009B90740198937616829A
:10DD9000D1740990E11D05A8062204F019FC68461B
:10DDA000211C0E3106221B3004F012FC2B6E04A83D
:10DDB00098475DE0A788FFF7D7F93149FFF7FEF9EB
:10DDC000A679FFF7D1F9031C58331A7802218A4348
:10DDD0001A70436E051C002B02D0381C311C98476A
:10DDE000281C8C3002F029FD42E0FFF775FF4369E3
:10DDF000A288A11D002B3BD0101C984738E0FFF7EC
:10DE0000B3F9C36DA279002B32D0101C98472FE0D4
:10DE1000FFF7AAF9A37B69465A07051C900FDA0899
:10DE2000677B08710A7204A8E11D0622DE0704F070
:10DE3000CFFB6B461879197AF60F9F75DE75187649
:10DE40005976231C0F3307936C352B68002B02D0B7
:10DE500004A8984709E06868002806D0AB69002B41
:10DE600003D0291C083104AA9847ED69002DECD194
:10DE7000FFF76EFD211CFFF7D9FD0BB0F0BDC046CA
:10DE8000FFFF00001FB508201C494822002302F0B4
:10DE90007BFB00280AD080B2002807D1BFF34F8F48
:10DEA000174A184BDA60BFF34F8FFEE7002302A832
:10DEB0000293436001230370FFF730FF002801D075
:10DEC000072417E06846FFF727FF0028F8D16946C6
:10DED000FFF720FF0028F3D10B4802F085FB84B246
:10DEE000002C07D1094802F089FB84B2002C01D133
:10DEF00000F0A8F8201C04B010BDC046B0320020CD
:10DF00000400FA0500ED00E029DD010021DD01003B
:10DF10007047000080B2002807D1BFF34F8F034A3B
:10DF2000034BDA60BFF34F8FFEE770470400FA053A
:10DF300000ED00E07FB5041CFFF782FA051C031C0E
:10DF400020881035303808286AD804F0BDFF0569EC
:10DF5000122D213D694A5900E288002A05D1211C71
:10DF60000C31281C02F064FE5AE01B69281C9B68D7
:10DF700055E0E288002A05D1211C0C31281C02F052
:10DF8000E9FE4DE052331A78022A49D1032219E002
:10DF90001B69281C5B689847002841D0211C0C3164
:10DFA000281C02F043FF3BE0E288002A05D1211C37
:10DFB0000C31281C02F0B6FC32E052331A78042AE5
:10DFC0002ED101221A702BE0A38901AE3380E389A0
:10DFD0007380238A1234B3800394FFF731FA4368C5
:10DFE0001AE0A38901AE3380A37BB370238AB38088
:10DFF000638A1434F3800394FFF722FA83680BE0FA
:10E00000A38901AE3380A37BB370238A1234B3801B
:10E010000394FFF715FAC368002B01D0301C984712
:10E02000281C02F0E3FC281C02F0A8FD281C02F0CA
:10E0300035FD7FBD77DF704778DF70477ADF704747
:10E040007CDF70471FB5002302AC03932823238095
:10E05000C8235B006380E38001A811230C490522DB
:10E060000370FFF7EDFF80B200280FD18020800001
:10E07000FFF7E2FF80B2002808D1201CFFF7DEFF87
:10E0800080B2002802D1FFF7D5FF80B204B010BDE6
:10E09000C862020068DF704770B50B780C1C142B47
:10E0A0001BD002D8132B05D053E0152B1FD0222BE9
:10E0B00046D04EE04D68FFF70FFE6368061C1888D7
:10E0C000AB787468D9079A07C90FDB06C9B2D20FBB
:10E0D0005B0F002C3DD0A0473BE0FFF7FDFD6368E0
:10E0E0001A8899788368002B33D0101C26E04B687F
:10E0F0009A7813091207120F012A02D0022A08D0B7
:10E1000010E0013BDBB20025022B0ED8124AD55C91
:10E110000BE0012B08D0023B5A42534105255B42DC
:10E120001D4002E0002500E00425FFF7D5FD6368EF
:10E130001A88C368002B0CD0101C291C984708E0D3
:10E14000FFF7CAFD63681A880369002B01D0101C11
:10E150009847002070BDC046CE620200F0B51C1C7E
:10E160002E4B87B001921A78071C00200E1C8242A9
:10E1700052D101F08FFF002848D1002C0FD022206F
:10E1800003A90394FFF786FF002808D0082804D0CD
:10E1900011384742784104303EE006203CE000233D
:10E1A0006A4602A8137201F045FA011E2ED103AC93
:10E1B0000C22201C04F02EFA1022194BA271E271DD
:10E1C000227A012503932A4302231A4304210A4396
:10E1D00061792E40A94322722F4072000E1C3E43EB
:10E1E00023719E43019B072716433B401C229B0043
:10E1F00096431E430B48211C667101F08BFA031EE7
:10E2000006D0042807D00620082B05D0092003E0FB
:10E21000024A157000E0381C07B0F0BDF93200204A
:10E2200099E00100F832002008B5084801F0E4FA4E
:10E230000023984207D0042804D00623082802D0DF
:10E24000092300E00723181C08BDC046F83200204F
:10E2500073B500230193104B01AD1B780E1C291CD4
:10E260002B7001F0D7FC041E04D00923052810D11F
:10E2700004230EE0281C311C01F086FA231C002820
:10E2800007D0042804D00623082802D0092300E080
:10E290000723181C76BDC046F8320020A2DF704765
:10E2A000A3DF704763DF704710B586B06C46073454
:10E2B00000232370C11AC97B02AA99540133102B81
:10E2C000F8D1101C211CFFF7EDFF0023984200D16C
:10E2D0002378181C06B010BDF0B5418A037885B0CC
:10E2E000041C01910126002B1CD083190093214BA3
:10E2F00000221D68AA4220D0112151431E4F002345
:10E30000C9198C46981E012805D96146CE5C009932
:10E31000C85C86420FD10133102BF3D111235A432D
:10E32000BF183E7C6B469E7303AB5888019900046E
:10E33000084305B0F0BD0132DCE70098FFF7B4FFF9
:10E340002378071C061C002B01D112340094082DE1
:10E35000E8D011246C43084B00991C19201C102292
:10E3600004F036F90023A370E370024B01352774E3
:10E370001D60D7E7FC32002000330020F0B597B0D5
:10E3800001931CAB049001CB30271B8805910293AD
:10E390001EAB1B88151C039320AB1E8821AB1B787A
:10E3A0001740069322AB1B780793002F0DD0222134
:10E3B000022369440B700123191C1022114308A881
:10E3C0000B1C0170212169440B700FAC201C002133
:10E3D0001C2204F01FF9002325709F4200D008ABD7
:10E3E0006361002E05D01F9A002A02D06260268148
:10E3F000668109AC00230699079823800123194000
:10E40000C90003401A010398CBB2029913430A1AB8
:10E41000511E8A4102210B431343A37032231D4234
:10E420001FD00198013804281BD822780F239A4363
:10E4300004F04AFD0305070C1100012107E001214A
:10E440000AE001210A431340302208E002210A4376
:10E450001340102203E002210A43134020221343F9
:10E4600023700C231D421FD00198013804281BD8AB
:10E4700062780F239A4304F027FD0305070C11006F
:10E48000012107E001210AE001210A431340302263
:10E4900008E002210A431340102203E002210A434C
:10E4A00013402022134363700AAD281C002114225C
:10E4B00004F0B0F80599029A039B1C980A912A81EE
:10E4C000AB8128610FA904982A1C239B6C60FFF77D
:10E4D000E5FE80B217B0F0BDF0B589B01D1C0EABE3
:10E4E0001E880192AA1B0F1C531E9A410221012370
:10E4F00000900A436846191C8272102203AC114333
:10E50000017241721422201C002104F083F8019A48
:10E5100002A9616022610098211C0F9A039725814E
:10E52000A681FFF7BDFE80B209B0F0BD08B500F0CE
:10E5300019F808BD38B50023C356041C0D1C01335F
:10E5400004D1064806492422FFF7F0FF6368002D36
:10E5500001D0E26800E02269136038BDD162020098
:10E56000E962020000B599B06846132100F07BF81B
:10E5700006A8132100F077F80CA8132100F073F817
:10E5800012A8132100F06FF868460121FFF7D2FFAF
:10E5900006A80021FFF7CEFF0CA80021FFF7CAFF55
:10E5A00012A80121FFF7C6FF962000F06CF868461C
:10E5B0000021FFF7BFFF06A80121FFF7BBFF0CA852
:10E5C0000121FFF7B7FF12A80021FFF7B3FF962044
:10E5D00000F059F8D8E70FB4012008B503F08EFF1A
:10E5E00038B50023C356041C0D1C013304D1064862
:10E5F00006492422FFF79AFF6368002D01D0E268E4
:10E6000000E02269136038BDD1620200E9620200B5
:10E6100070B50D1C041C161C00F03CF8013507D029
:10E62000201C002100F054F8201C311C00F04AF896
:10E6300070BD08B50322FFF7EBFF08BD70B50D1CD8
:10E64000041C161C00F026F801350BD0201C311CD0
:10E65000FFF7C6FF201C012100F03AF8201C002122
:10E6600000F030F870BD08B50022FFF7E7FF08BDE5
:10E6700038B5041C00F0E4FC051C00F0E1FC401B74
:10E68000A042FAD338BD08B5FA239B005843FFF7E0
:10E69000EFFF08BD01704B1C0AD001238B40436083
:10E6A000044BC360044B0361044B4361044B836020
:10E6B0007047C046080500500C050050100500507A
:10E6C0001405005008B5007840B200F019F908BDF3
:10E6D00038B50023C356051C0C1C013304D109486E
:10E6E00009492A22FFF722FF002C01D0012C07D173
:10E6F0000022AA56A023C132FF329200DB05D4507B
:10E7000038BDC046D16202008E63020037B5A22335
:10E71000A022D205DB00D358BE220193314B520018
:10E72000995800295CD0C12189005958002957DA2D
:10E7300000249C502C4BA500E85800284DD02B4BB2
:10E74000E35C002B30D0019B0121E3400B4212D04F
:10E75000E0235B00E218A0239200DB05D3589B0363
:10E760009B0F032B07D0224B1B68E3400B4202D0C8
:10E77000204B1B6817E0019A0123E2401A4213D193
:10E78000E0225200A118A0228900D2058A589203E3
:10E79000920F032A08D1184A1268E2401A4203D0A5
:10E7A000144B02211B689847A023DB05EA18E023DD
:10E7B000DB00C021D058890208420ED0D5580F483E
:10E7C0002840D0500198E040C50701D5D05802E05C
:10E7D0008021D05889020143D15001341F2CA9D186
:10E7E00037BDC046006000408C3300200C34002050
:10E7F00008340020883300202C340020FFFFFCFF69
:10E8000030B54C1C1DD0104C016022600F4CBE2254
:10E8100052000020A0500E4A8D00AB500D4B01223B
:10E820005A54C122802392001B06A3500A4B0B4965
:10E830009C582140C02424042143995040221A604E
:10E8400000E0081C30BDC046883300200060004056
:10E850008C3300200C34002000E100E0FFFF00FFBB
:10E86000036870B5A024E40598000019E024E400D2
:10E870000659204D354005511F4C0125002A0ED068
:10E88000A94204D1226899401143216015E0022970
:10E8900013D11A4A9D4011680D4315600DE00129FE
:10E8A00004D1226899408A43226006E0022904D1FB
:10E8B000124A9D401168A943116021680122D94084
:10E8C000114204D10D490968D940114211D0A22248
:10E8D000A021C905D2008A58DA40131CE022D200D8
:10E8E0008158DC0701D5C02300E080239B020B4345
:10E8F000835070BDFFFFFCFF083400202C34002043
:10E9000038B5041C0D1C431C04D10A480A491A22BC
:10E91000FFF70CFEA023A000DB05C018E023DB00FE
:10E92000C2580C218A43C250C258AD001543C5508D
:10E9300038BDC046D66202003064020002780D4B3A
:10E940009200D218A223DB0010B58020D4584003D7
:10E950002043D050002902D0D158074806E0D058B3
:10E9600006490140D150D058802149020143D1507D
:10E9700010BDC0460060004003000300FFFFFCFF25
:10E98000114A00211165114A114B1188114A995001
:10E99000114A1178002904D010490888A821C9001B
:10E9A00058505178002903D00C4948880C495850D8
:10E9B0009278002A04D0094A9188A922D20099505D
:10E9C00001221A607047C046FCA0004018280020B1
:10E9D00000A000404C050000363400201A2800201A
:10E9E00044050000164B002210B55A60904210D129
:10E9F000144A012198509950134A06219850A12297
:10EA0000D2009850A222D2009950104A1188104A80
:10EA10009950104A410051308A5AFF3080001A50F4
:10EA2000C2210D4A890054580C4820408024E40338
:10EA3000204350508021C900116001221A6010BD8E
:10EA400000A00040FC0F0000040500001828002072
:10EA50004C0500001A28002000E100E0FFFF00FF45
:10EA6000E022520010B5A0238418DB05A400012287
:10EA7000E2500C4C82401A510B4B8900C9180B4ACA
:10EA8000A223DB00CA50C046C046C04601230B602B
:10EA9000074B00021843A223DB00C850C046C04603
:10EAA000C04610BD0C05000000600040031F0200BE
:10EAB0000300030010B5002A02D0FFF73FFF17E064
:10EAC00002780C4B9200D218A223DB00D4580A48DB
:10EAD0002040D050002902D0D158084806E0D05834
:10EAE00007490140D150D058802189020143D150BB
:10EAF00010BDC04600600040FFFFEFFF03000300B1
:10EB0000FFFFFCFF0378F7B5041CFF2B04D1264858
:10EB10002649F422FFF70AFD2378254A0021D15423
:10EB2000244B00222578244E1A6501239D407360F2
:10EB3000224B23491F88695A381C019104F0C4FFF5
:10EB4000002104F007FD04F0D3FA1E4B1C4982B2E9
:10EB5000EA526A52002A04D10121E952201C111CF8
:10EB600014E0BA4206D1013A201C0021EA52FFF714
:10EB7000E5FE0DE0019A002A01D0BA4208D1019BBE
:10EB8000201CDA1B53425A41D2B20121FFF792FFF7
:10EB90008022C12312039B00F2500B4A80239B006A
:10EBA000F25001233360F7BD386602005066020060
:10EBB00036340020FCA0004000A0004018280020AF
:10EBC000303400201A280020080800002C4BF7B52C
:10EBD0002C4C00221A650123061C0D1C081C6360C6
:10EBE000002104F01BFA002809D1FE21281C890508
:10EBF00004F028FA002803D0FE25AD0500E000252A
:10EC0000214B347821491F886400615A381C0191D6
:10EC100004F05AFF011C281C04F09CFC04F068FA64
:10EC20001B4B1A4982B2E2526252002A04D10121DE
:10EC3000E152301C111C14E0BA4206D1013A301CDA
:10EC40000021E252FFF77AFE0DE0019A002A01D07E
:10EC5000BA4208D1019B301CDA1B57427A41D2B22A
:10EC60000121FFF727FF07498022C12312039B00E0
:10EC7000CA50084A80239B00CA5001230B60F7BD8D
:10EC8000FCA0004000A000401828002030340020E4
:10EC90001A28002008080000CB17104A9B0F0020FC
:10ECA000106559180E480F4B01225A6089100E4A00
:10ECB000814202D90121494202E0042900D80521FC
:10ECC00011808021C12209039200995007498022B6
:10ECD0009200995001221A607047C046FCA0004083
:10ECE000FFFF000000A000401828002008080000D6
:10ECF000F7B5041C0E1C081C514902F015F9C5B2E9
:10ED0000071CFF2D04D14F484F49CE22FFF70EFCC0
:10ED10004E4BFFB2D95D012200290FD0597800294E
:10ED200002D15A70151C0AE09978002902D19A7014
:10ED3000022504E04648FFF74EFC00E0DA55301C9F
:10ED40006670291C2570FFF78BFE42496A00D2B21B
:10ED5000414BAF007F18561C3F49D000C018B44645
:10ED60003E4BF6007618C750F7503D4BAF00FF18EA
:10ED7000A223DB00C7503B48F050081CA021C9006B
:10ED80004658012301961F1C6646B740BC461F1C0F
:10ED900097403A1C6646019F32433A434250002D49
:10EDA00002D18022D2059367281CFFF71BFE201C8E
:10EDB0002D49FFF771FF257801222C4B2C4E9540F1
:10EDC00000211965AE5B2B4B2B4F7A6001961E8894
:10EDD000301C04F079FE002104F0BCFB04F088F93B
:10EDE000264B234982B2EA526A52002A04D10126F4
:10EDF000EE52201C111C14E0B24206D1013A201C34
:10EE00000021EA52FFF79AFD0DE00199002901D097
:10EE1000B14208D1019B201C9A1B56427241D2B2CA
:10EE20000121FFF747FE8022C12312039B00FA5005
:10EE3000134A80239B00FA5001233B60F7BDC04674
:10EE4000D06402003D6602005066020036340020A5
:10EE5000F46602000060004000F00140140500006C
:10EE600040A100404CA10040204E0000FCA000400A
:10EE7000303400201828002000A000401A2800206C
:10EE800008080000124AC1239B00D15810B508069B
:10EE900003D51049096A002911D1D3585A0716D54C
:10EEA0000C4BDA68002A12D00024DC60084AA32345
:10EEB000DB00D058C0B201F017FC211C00E001219A
:10EEC000054B1868002802D0044B1B68984710BDFA
:10EED00000200040FC200040403400203C34002052
:10EEE00003681A1CFC32106A0128FAD10020106253
:10EEF000014AC9B2995070471C0500000368FC33F1
:10EF0000186A013843425841704700000A490B4AC9
:10EF100088680B4B002808D0186801301860002062
:10EF200088600220D2218140505006491B68525807
:10EF30001806190A10437047FC10014000100140E8
:10EF400048340020040500002F23C046C046C046B8
:10EF5000C046C046C046C046C046C046C046C04681
:10EF6000C046C046C046013B002BEED170470000B2
:10EF7000174B70B59A68002A0AD0164A0220116809
:10EF80000131116000229A601349D22282408850D8
:10EF90005B6C114C002B19D0104D2B78002B15D029
:10EFA0000F4B1E68FFF7B2FF361A002E0EDC084B1F
:10EFB00000215964D22280235B029200A350297061
:10EFC000C22189006350A35001F0BEFF70BDC0464E
:10EFD000FC10014048340020001001404D34002056
:10EFE0004434002038B5124C2278002A1FD1114B2E
:10EFF000A121C9005A500222D22191405A50C12168
:10F0000091405A500C4AC421890055580B48284059
:10F01000C0252D02284350508021C0208902400085
:10F020000125115011601D60FFF78EFF257038BD5E
:10F030004C3400200010014000E100E0FF00FFFF21
:10F0400008B50B4B1B78002B01D1FFF7CBFFFFF767
:10F050005DFF064B044A04F029F84904C00B08433D
:10F0600008BDC046C046C04640420F000000000038
:10F070004C340020C046C0462F4B70B51B78061C90
:10F08000002B01D1FFF7AEFFFFF740FF254B244ACD
:10F0900004F00CF84B04C00B002400251843CD0BE2
:10F0A0000023321CA4185D4180231B06984205D919
:10F0B000002E03DB1C4A1D4BA4185D41610CEB03C1
:10F0C0000B43E2031A481B4980185941154B144A57
:10F0D00003F0CCFF194D041C2B78194E002B02D0E5
:10F0E000336898421BD0FFF711FF201A022802DC78
:10F0F000FFF70CFF841C2102124BA822D200090A40
:10F1000099502A783460002A09D101222A70D2212C
:10F110008022520289005A50C12189005A5070BD84
:10F1200040420F000000000000000000010000004D
:10F130003F420F00000000004C3400204D340020FE
:10F140004434002000100140074B1A78002A0AD0EE
:10F15000064A8021C220490280001150D22080003E
:10F16000115000221A7070474D34002000100140E9
:10F17000024B00229A605A647047C046FC1001405E
:10F180002EDF704732DF704733DF70474CDF704748
:10F1900008B5054B01201A7850401870034B1B68C6
:10F1A000002B00D0984708BD543400205034002074
:10F1B00038B50C4B051C15200C1C1A60FFF7E2FF3C
:10F1C00000280ED11520291CFFF7DEFF002808D1EA
:10F1D0001520FFF7D5FF002803D10320211CFFF7DE
:10F1E000D5FF38BD503400207FDF704782DF704785
:10F1F000A7DF7047A9DF7047AADF7047002070477C
:10F2000000207047002070470020704700207047A2
:10F210000020704700207047F0B58BB06C460E237D
:10F22000E382039001914B780C225343244A163415
:10F23000D318188906A9221C0323FFF7DDFF002835
:10F240003BD1019B18275B781E4D5F4300933B1C0D
:10F2500026880833EB18181C06A9321C029303F009
:10F26000A8F92C1C00280DD1009A0C235343144AF2
:10F27000D318997A022319401FD1E819182203F0F4
:10F28000C9F91AE0ED196B68002B01D00E4F00E0B0
:10F290000E4F009B18256B430322E250E3185E607B
:10F2A00006A9321C029803F093F9019B0398597840
:10F2B0002A1C694338236118B84700200BB0F0BD01
:10F2C0005A340020F43400204D030200CD02020025
:10F2D00008B5FFF7A1FF08BDF7B5041C0F1C6A466F
:10F2E0008178224800F0CAFF00283DD162780C21C5
:10F2F0004A431F4B9A18927A530605D4022F03D023
:10F30000012F03D11B4D02E01B4D00E01B4DA178E6
:10F310001C2671431A4B68465918321C0023A84713
:10F32000002813D1022F1FD063780C225343104AB8
:10F330004021D3189A7A68468A439A726178114BB1
:10F340007143321C5918331CA84701E0022F0BD01F
:10F3500023780C2253430C4A6846D3189A7A0B4BF5
:10F360009200D358211C9847F7BDC0461C35002099
:10F370005A340020CD0202004D030200FDF10100CD
:10F3800068340020D83400200C3500204867020083
:10F39000F7B50190437818215943264A264F501853
:10F3A0004468002C0FD00C2058433818807A45B29E
:10F3B000002D07DA450605D40E1C0836A5B29619AD
:10F3C0008C5802E00024251C261C0C225343FB18F9
:10F3D0001889311C2A1C231CFFF70CFF0B280BD1AA
:10F3E000019A311C53780C225343FB1818892A1CAC
:10F3F0000123FFF7FFFE0124002800D00F48012C55
:10F4000017D1019D0C216B780D4A4B43FB181889CD
:10F41000FFF7EEFE00280CD00A4B984208D00828CF
:10F4200006D0094B984203D0112801D0002000E0FB
:10F430000248FEBDF43400205A3400204180000010
:10F44000FFFF0000023000000430000008B5FFF7A5
:10F450009FFF08BD70B5031C487818246043094D10
:10F460000E1C2818191C221C382300F0AFFF00289E
:10F4700006D173785C432D196B68013300D1686045
:10F4800070BDC046F434002008B5FFF7E3FF08BDA7
:10F49000F0B51D1C434B161C1A6893B001900F1C4D
:10F4A000002A7CD01898542879D803ABFF22002476
:10F4B00069465A709A70DA701C700C760B950A9037
:10F4C000A1B2394804AA00F0D9FE002809D1019858
:10F4D00004A9082203F06DF8002802D103AB9C7048
:10F4E00002E00134042CEBD103ACA278FF2A56D001
:10F4F000042F0AD1189A06AB542A01D1202200E029
:10F5000040221A701A7803213BE0284BEB1A6F2B2C
:10F5100011D8274B002E04D10121186891400842D0
:10F520003DD0012191400A1C1968914319602022A5
:10F5300006AB1A7020E01F4BEB1A1B2B09D806AB49
:10F5400020221A70002363700CAB0B9318230A93CC
:10F5500012E019482D1A172D21D830236A46137648
:10F56000002363700123E370144B997A022319403E
:10F5700002D1182203F04EF806AB032F0CD11A78F3
:10F5800001210A4307481A7009AB079306A90368CB
:10F59000321C201C984702E01A780221F1E713B0D0
:10F5A000F0BDC0460C3500201C350020683400201A
:10F5B00018350020D8340020F43400205A340020BC
:10F5C00070B51C2444430E4E051C3019002134191B
:10F5D0000622113003F01EF8201C0021102203F037
:10F5E00019F8FF232374A37601235B4223830122AE
:10F5F000044BAA40151C1A68AA431A6070BDC04685
:10F60000683400201835002037B581B2051C6A46E1
:10F61000074800F033FE041E08D16846542100F06C
:10F620001DFF041E02D1281CFFF7CAFF201C3EBD8F
:10F630001C350020F0B5051C85B0002855D02C4B9A
:10F6400000242C481C605C729C72012383725B4214
:10F65000211C07220381C37202F0DCFF2648211C13
:10F66000182202F0D7FF201CFFF7AAFF234BFF222E
:10F67000E2540134042CF6D16A46214F542393807E
:10F68000204B6846391CD480009300F067FD3E1C77
:10F6900000282BD11C4B2C7801221A701D1C002C29
:10F6A0001AD1A1B2301C02AA00F0E8FD071E0CD14D
:10F6B0001C22131C6343154802A9C0183B1C00F010
:10F6C00085FE002804D02F7010E000232B700DE081
:10F6D0000134042CE5D109E06A46D1889388381CAE
:10F6E000594389B200F0BAFE00E0094805B0F0BD08
:10F6F0000C3500205A340020F4340020553400200A
:10F700001C35002091F40100593400206834002099
:10F710000E800000F8B5174B071C1B780D1C002B42
:10F7200022D0002822D0002920D00B68002B1DD029
:10F73000114C2668002E1BD1201C08C00531052263
:10F7400002F046FF207A2B79012188430222A3721E
:10F750001043042398432072E07901430A439A43FB
:10F76000E271301C3E7004E0044802E0044800E00E
:10F770000448F8BD593400200C35002008800000F2
:10F780000E80000004800000154B1B78002B22D057
:10F7900000281ED000291CD00378002B1BD1114B50
:10F7A0001B68002B17D04278002A16D10E4B9B7A8B
:10F7B000012B12D02420184003D001230B70101C01
:10F7C0000CE05BB2002B02DA02230B7006E008703B
:10F7D00004E0064802E0064800E006487047C046DC
:10F7E000593400200C3500205A3400200E800000CF
:10F7F0000880000010800000104B10B51B78002B13
:10F8000019D0002815D00478002C14D10C4B1B689B
:10F81000002B10D0201C1C2363430A4AD3189B7E64
:10F82000FF2B02D0201CFFF7EFFE0134042CF2D195
:10F8300002E0054800E0054810BDC04659340020EC
:10F840000C350020683400200E8000000880000085
:10F8500013B5041C81786A460B4800F00FFD0028A0
:10F8600010D160781C235843084A694610181A1CA6
:10F8700000F0ACFD064B68469A7A064B9200D358CE
:10F88000211C984713BDC0461C350020D8340020E9
:10F890000C35002058670200F0B5C54A8FB01278C9
:10F8A000FF23061C0393002A00D1AEE1C14A116870
:10F8B000002900D1A9E104AD05AF6B70AB70EB700E
:10F8C000031D7B602A233B81038800212970BA4CE9
:10F8D000102B22D0A17A82880191890707D5B749D8
:10F8E0008A4200D145E12189914200D141E1172BA3
:10F8F00000D1A8E007D8132B54D0142B2CD0112BF7
:10F9000000D082E10EE01C2B00D118E1522B00D177
:10F910000DE1182B00D078E1E1E0A37ADA0700D5F9
:10F920002CE172E1019A022301999A43A27209071C
:10F9300007D553B2002B0BDA281C0021FFF7CCFCB3
:10F9400006E0A878FF2803D0FFF73AFEFF23AB704C
:10F950001023A3721223F3E0E37A994FFF2B16D101
:10F96000F28900231C2159437918098B91420BD14C
:10F970000199082203930A43DBB2E372A272281CA6
:10F98000AB70FFF765FF02E00133042BEAD1E37AA5
:10F990000021FF2B00D08B49B0883A1C0023FFF7D1
:10F9A00025FC32E1019A3B7004231343A372E37AEE
:10F9B000FF2B22D100271C207843814B1818837E0F
:10F9C000FF2B15D12278031C1833022A07D0FD2201
:10F9D0009A70211C0722103002F0FAFD01E0FE228D
:10F9E0009A7003AB1F700399CBB2AB70E37210E057
:10F9F0000137042FDFD1744C0CE0744816230E221B
:10FA0000083000213B7002F005FE019A44231343A5
:10FA1000A37200240021684B0B91DB7A1C22534314
:10FA2000674A0D91D3180C93664B624A089309916B
:10FA30000A91B088043208ABFFF7D6FB002800D04B
:10FA4000E3E0221C7EE05B4901224B7A9343019A5A
:10FA50004B7204239A431423A2723B70B379002B98
:10FA600004D0E07AFFF7D0FDB2796BE0F379590763
:10FA700067D5AB78FF2B64D008210A43F17AA272D4
:10FA80008907C90F012906D11C225A434C48821804
:10FA9000907E88439076E27AFF2A52D02178484AB5
:10FAA0001C2602290CD05E439619301C0722103008
:10FAB000211C02F08DFDB37E02229343B37609E050
:10FAC00073434049D318498A1A1C19839B7E01212C
:10FAD0008B439376281C0121FFF7FEFB31E0B379BD
:10FAE000112B15D1019A120712D5384800210E2288
:10FAF000083002F08FFD162301993B7060230B4301
:10FB00002C4AA372537A2B49022213434B7218E0FA
:10FB1000019A80235B421343A37215233B70254B4C
:10FB2000281C9A7A2A4B9200D358984709E0214919
:10FB3000274B8A7A281C9200D358984765E01323F4
:10FB40003B7000221B4905AC0B68281C211C984700
:10FB50002378122B59D11848837A012B55D00123D1
:10FB600083725B420381C3720021072202F052FDBF
:10FB70004BE0E27AAA7000226A70B8E611230022F4
:10FB80003B706A708388871D23810223A372201C27
:10FB9000391C072202F01CFD737D0026D9071ED5F3
:10FBA0000C4A5B08D35CFF2B25D0039323E0C046AF
:10FBB000593400200C3500205A340020FFFF00008B
:10FBC00068340020D834002043800000F434002042
:10FBD00038670200553400200136042EB1D01C23B2
:10FBE00073430B48391C1030C018072202F0E1FCA7
:10FBF0000028F1D1039603990A22CBB2E372A272D4
:10FC0000281CAB70FFF724FE9BE70FB0F0BDC04689
:10FC10006834002030B5002912D00A78002A11D1AA
:10FC20000A4B1B68002B0DD0FF23094C8B702589D4
:10FC30000523854207D14A70E37A8B70131C02E0DA
:10FC4000044B00E0044B181C30BDC0460C350020AE
:10FC50005A3400200E8000000880000029DF704721
:10FC600028DF704737B5094B021C1978142041432F
:10FC70005C18E068217905016369201CE4880C3078
:10FC80000094034C2C59A04737BDC04624350020B2
:10FC900050350020F7B5634C00932378061C0F1CE9
:10FCA000151C002B06D1009B134301D1022300E059
:10FCB0000123237023780320013B052B00D9B0E0FA
:10FCC000181C03F001F9032334557E91564A802312
:10FCD00051695B05013105D05069196989B203F09A
:10FCE000FDF800E0586980235B051D6919691A69F0
:10FCF0000138ABB289B292B2584379439208FFF708
:10FD0000ADFF0223002800D18AE08AE0381CFFF70B
:10FD1000A7FF002800D084E00323002D00D07FE05F
:10FD20000099002922D13378042B48D177E0802331
:10FD30005B051A6992B257433B4A5169013105D0BC
:10FD40005069196989B203F0C9F800E05869802345
:10FD50005B051969013889B241432A1C381CFFF739
:10FD60007DFF00285DD1009A002A25D0042357E0AA
:10FD700080235B051A69718892B257432A4A7F181B
:10FD800001915169AD007F19013105D050691969A0
:10FD900089B203F0A3F800E0586980235B05196974
:10FDA000013889B24843019AAD182918009A381CC5
:10FDB000FFF754FF002834D13378042B12D00523E9
:10FDC0002EE080235B051869728880B24743AB0040
:10FDD000D81931699208FFF741FF002821D1009B13
:10FDE0001D431CD006231BE00F4A802351695B058D
:10FDF000013105D05069196989B203F06FF800E04C
:10FE0000586980235B051A691969013893B2584310
:10FE100089B203F063F8FFF723FF002801D107231D
:10FE20002370FEBD6935002000100010F8B5324E79
:10FE3000142233785343F3181C1D1B79E568042BF7
:10FE400018D0052B39D00F20022B54D12B4B6288B0
:10FE50001888236980021918A388121A5D19284B83
:10FE600028189A4201D8920801E080225200FFF738
:10FE7000F5FE3CE0A26823491301CB181989588983
:10FE80005B6880277F05AB4203D141436388994279
:10FE900001D0022A0AD13969281C89B203F01EF860
:10FEA000164B1B88C018FFF7DBFE20E03969281CC1
:10FEB00089B203F013F8011C09E080277F05396936
:10FEC000281C89B203F00AF8A388011C5D193A695D
:10FED0003B6992B2481C4A439BB243436088AA1ACA
:10FEE00045195B1B92089B08201CFFF7D3FE0028D6
:10FEF00001D10123B370F8BD243500206A350020FC
:10FF0000FF03000050350020F8B5134C061C65783F
:10FF100006A807880420022D1DD020782D18EDB2E8
:10FF2000012D01D9023DEDB21420454365196A61E6
:10FF30002A1C2E710C3241C941C2EB802F81A3785B
:10FF4000002B01D0002003E0FFF770FF1128F9D04B
:10FF5000637801336370F8BD2435002008B5084B81
:10FF600000205B78834209D0FFF760FF002805D0AE
:10FF7000031C113B5A1E93415B42184008BDC0460A
:10FF800024350020F0B53F4A87B09378141C002B2D
:10FF900075D03D49002393700A78082A06D10228BB
:10FFA00001D10B7065E0394A137062E0022803D07A
:10FFB000032864D10D2060E0217814204843344D9B
:10FFC0002018011D8C4629880079013189B20191E0
:10FFD000298002280AD18E02614649880296029F32
:10FFE000F517CE0F8F426E41059607E0052804D124
:10FFF000D51F6E427541059301E005931D1C042831
:020000022000DC
:100000000BD1D31F58424341019866468102708844
:10001000814205DB51424A4103E000231A1C00E003
:100020000022002D07D1002B05D1002A03D1059F06
:1000300001231F421DD0144800250570281CFFF71E
:1000400011FE227814235343114EE31801201D7131
:10005000DD80D8601D615D611D8135806378013B65
:1000600063701318DBB2834201D8237001E0013AB8
:100070002270FFF773FF002801D0FFF7F3FD07B0F0
:10008000F0BDC046243500206935002068350020C9
:100090006A35002038B5294B00221A80284B0121EF
:1000A000D9601962274C28491A705A701A711A615E
:1000B0001A765A629A70DA805A611A815A839A6261
:1000C0009A830A8062691D1C80235B05013205D07A
:1000D0006069196989B202F001FF00E05869802364
:1000E0005B051A69023892B25043184A0021106029
:1000F000174A1160118191815181164A08211170AE
:100100006269013206D00F4A5069196989B202F05A
:10011000E5FE00E0586980235B051A69196901381A
:1001200093B2584389B202F0D9FEFFF799FD002837
:1001300003D1094A0123AB70137038BD6A35002022
:1001400024350020001000106035002064350020A8
:10015000503500206935002068350020F0B5424B4D
:1001600087B01B780F1C0824002B79D0002876D08C
:10017000002974D004680494002C70D080235B059F
:100180001A69858892B20724954269D80F2D67D9DC
:10019000C0880190002863D0041C6C43334A039448
:1001A0001268261C0292A418314A05945169013143
:1001B00005D05069196989B202F090FE00E05869D3
:1001C00080235B051A69013892B2504305990724D0
:1001D000814245D81A69039992B2914207DD1869A4
:1001E000291C80B202F0BEFE89B2002938D103205A
:1001F00028400724002833D11E4A0424138894463B
:10020000012B2DD0029C1C4A7C603B601C01029F8C
:1002100011194F60049FA750019C0D814C81134917
:100220000C680D1C802149050F690130BFB280B2F6
:10023000BE4203D90F69BFB2F61B00E000260F696A
:100240000969BFB289B2E4198E42EBD21901521882
:10025000013367462C6090813B80002400E00E242F
:10026000201C07B0F0BDC046683500206435002072
:10027000001000106035002050350020114B30B5C3
:100280001C780823002C1AD0002815D0002A13D07F
:100290000368002B12D10C4C2568002D0ED0258947
:1002A0004068694309186089454360682D18A94270
:1002B00004D21360516002E00E2300E00723181CF3
:1002C00030BDC0466835002050350020F0B5141C04
:1002D0001C4A051C127885B00F1C0820002A2ED05D
:1002E00000292BD0002D29D029680720002926D1EC
:1002F000154E3268002A22D06968039132897189CB
:10030000766851438C4603996644B14217D2002C5B
:1003100015D0944213D8E618964210DC0322102020
:1003200017420CD113420AD1114208D10093291C63
:100330003A1C231C0220FFF7E7FD00E00E2005B069
:10034000F0BDC0466835002050350020F0B5141CC3
:100350001C4A051C127885B00F1C0820002A2ED0DC
:1003600000292BD0002D29D029680720002926D16B
:10037000154E3268002A22D069680391328971894A
:10038000766851438C4603996644B14217D2002CDB
:1003900015D0944213D8E618964210DC03221020A0
:1003A00017420CD113420AD1114208D10093291CE3
:1003B0003A1C231C0520FFF7A7FD00E00E2005B026
:1003C000F0BDC0466835002050350020F0B5161C41
:1003D000204A85B0127802900D1C0824002A36D0DD
:1003E00000292FD000282DD00C68002C2CD11A4FBA
:1003F0003A68002A28D04A6878893989484384466F
:100400007868844462451FD2002E1DD08E421BD8CE
:10041000F018884218DC02980321084216D10B42DA
:1004200014D11140039111D19918321C02F0D0F867
:100430002A6800961301FE58281C0321039A029B88
:10044000B04704E00E2402E0072400E01024201C42
:1004500005B0F0BD6835002050350020154B73B550
:100460001B78041C0D1C0820002B22D0002C1FD050
:1004700022680720002A1CD10F4A1368002B18D0CD
:1004800056681189528963684A439219934210D27F
:1004900010209A070DD1981B02F064FD07200A1E58
:1004A00007D100912B1C211C0420FFF72DFD00E03B
:1004B0000E2076BD68350020503500202EDF7047B5
:1004C00051DF704710DF704711DF704761DF704701
:1004D00008B5081C111CFDF71BFD08BDF0B5254B28
:1004E00085B01B78002B42D0234E244F32685442F3
:1004F00054413A68E4B255425541EDB2002C34D132
:1005000003A8FFF7DDFF05280AD0002804D0211C2E
:10051000221CFDF7FFFC04E003983368984700E0D5
:100520000124002D1ED1164B03A91B880B80154BEF
:100530001B68181C0193FFF7C9FF051E052D0BD082
:10054000002805D000210A1CFDF7E4FC002504E08A
:1005500001983A68904700E00125002CCED0002D8C
:10056000CCD004E0002C02D1C8E7002DDBD005B0D0
:10057000F0BDC0466C350020743500207835002071
:100580006E3500207035002038B5041C0720002986
:1005900013D08D0711D1094801600949201C0A8038
:1005A000084A09491360FFF78DFF002805D1074B62
:1005B000012216201A70FFF781FF38BD7035002028
:1005C0006E3500207C350020D10402006C350020FF
:1005D00008B5FFF779FF021C531E9A41014BD2B2B6
:1005E0001A7008BD6C350020002803D0024B18603B
:1005F000002000E00E20704778350020002803D04E
:10060000024B1860002000E00E2070477435002077
:1006100008B5074B1B68002B07D09847002806D069
:1006200000210A1CFDF776FC01E0FFF757FF08BD2B
:100630007C35002008B5FBF7BFFEFBF795FFFCE714
:10064000FF230E2801D8024B1B5C58B27047C046EE
:100650006867020001207047054B1A1C4032107871
:1006600041331B784030C01A3F2318407047C046C2
:1006700080350020084A111C101C413140300B7895
:100680000078984205D0D05C01333F2213400B70B4
:1006900001E001204042704780350020064B1A1CC3
:1006A000191C4132403112780978914201D0985C8E
:1006B00001E00120404270478035002007B5034B20
:1006C00068460093FEF70CFC0EBDC04600200040BB
:1006D00007B5044B00936846FEF710FC0028FAD0DB
:1006E00007BDC0460020004030B5074B3F211A1C13
:1006F00040321478651C29401D1C41352D788D42EF
:1007000001D01855117030BD8035002000234360A2
:10071000FA239B008360024B083303607047C04696
:100720007867020008B5034800F027FC0248FFF78D
:10073000EDFF08BD80350020C4350020F7B5FA264E
:100740000093B60008AB041C1B78301C48431449C6
:10075000171C019302F0C2FB85B2301C2580784340
:100760000F4902F0BBFB009B80B2A380019B60801D
:10077000A371032D01D80423238022888023DB0169
:100780009A4200D92380032801D80422628062881B
:100790009A4202D98023DB016380201CFEBDC04643
:1007A0007102000038B50E4B041C083303600023AF
:1007B0004360A160C360FE230D1C5B058800994265
:1007C00001D90120404200F090FC013D031C013D95
:1007D000AA1C02D0002204C3F9E76060201C38BDC7
:1007E000A067020070B5041C0025E3689D4209DA89
:1007F0006268AE00905900F091FC6268002393514A
:100800000135F2E70023E36070BD000010B5054B31
:10081000041C08330360FFF7E5FF606800F07EFC0E
:10082000201C10BDA067020010B5041CFFF7EEFFEE
:10083000201C00F073FC201C10BD38B5051C0024E2
:10084000EB689C4211DA6A68A30099584B69002B47
:1008500004D10B68002B06D0984704E008680028F4
:1008600001D0043198470134EAE738BD90DF704782
:1008700092DF704793DF704794DF7047036810B5CD
:10088000021C002B0BD0591E4068116099000023F8
:1008900004338B4205D0D4186468D450F8E70120A3
:1008A000404210BD036810B5021C002B0BD0591E2E
:1008B000406811609900002304338B4205D0D4189E
:1008C0006468D450F8E70120404210BD73B58180C0
:1008D0000025041C3F300570FF260138C6700570E6
:1008E00001AE022042342070081C311C738032801B
:1008F000FFF7BEFF031C281CAB420FD02278022A50
:1009000001D103222270112B07D0054A934202D055
:100910000620102B02D1042000E0052076BDC04641
:1009200002300000F0B5051C85B0019142352B78EE
:10093000041C0026042B52D1019A062713889E42DC
:1009400021D27743019A274BD719BA889A4209D105
:10095000231C41331B78242058432018BC3079884D
:1009600000F09CFBBA88204B9A4209D1231C4133EA
:100970001B78242058432018BC30798800F090FB65
:100980000136F6B2D8E7013B5F43231CD719413348
:10099000211C7A881B783F3109780132013392B2E9
:1009A0008B4208D1231C40331B7818214B43403322
:1009B000E3185B8B04E024214B43B833E318DB8B53
:1009C0009A4207D203A90A804B80A088FFF752FF02
:1009D000002804D02B78042B01D101232B7005B003
:1009E000F0BDC0460129000002290000F7B5061C31
:1009F00042363378041C022B4ED1271C231C3E3771
:100A00003F333D781B78AB4227D9631CDB7F002B3B
:100A10000BD124236B43E318BC331A79002A15D178
:100A2000628EDB8A9A4211D113E0012B0ED1242170
:100A30006943B83161180B7A012B07D1201C0931A9
:100A40002130102201F0B5FD002802D001353D70A3
:100A5000D3E7231C41331D70F8E72423013D5D4398
:100A6000231C40331B7818214B43B83565192A8C59
:100A70004033E31801325B8B92B29A420AD201A949
:100A80000A804B80A088FFF7F3FE002804D033785B
:100A9000022B01D103233370F7BD000070B5041C95
:100AA000231C42331B78012B65D1261C231C3C36AA
:100AB0003D3335781B78AB422ED9A379002B0CD16E
:100AC00018236B434033E318191D1B79002B1FD1EA
:100AD000228B4B8A9A421BD10FE0012B18D118218F
:100AE0006943403161180B79012B11D1E01D0531AB
:100AF000102201F05EFD00280AD1E369002B07D027
:100B000018206843221C4032201815704430984742
:100B1000337801333370C3E7013D18225543403524
:100B20006519698B144B99421FD1636B002B18D048
:100B3000211C40310878FF2813D001310978FF29A2
:100B40000AD1131C4343E31844339A8AA188DB8AF1
:100B5000201CFFF7BBFE0EE0242048432018BC30C9
:100B60009847201CFCF750FC05E0A0880022FFF706
:100B70007DFE0028F5D170BDFFFF000037B5041CD5
:100B800042342378032B26D104232370031C4033E3
:100B90001B78FF2B1DD0021C41321278FF2A18D07F
:100BA00024214A4318256B43B8328218128C4033F3
:100BB000C31801325B8B01A992B20A804B809A4222
:100BC00007D28088FFF756FE002804D02378042B34
:100BD00001D10123237037BD73B5051C2B68AC69A7
:100BE000002B1CD0231C423305221A706E680F495B
:100BF0000422684601F0ECFC18237343E3184433E5
:100C0000998ADB8A01AA11805380A0886946FFF780
:100C100033FE002809D0281CFFF730FEDEE74234FF
:100C20002378052B01D10123237073BDB067020027
:100C3000F0B5031C3D331F780A8889B0BA18D2B2C8
:100C4000041C052A00D905221A70EE2300225B003D
:100C5000E250EE2301225B00E31852425A609A6090
:100C6000DA601A615A6118237B43E3181E1C0D1CBD
:100C70005836231C3D331B789F4230D22B79002BF2
:100C80000ED1EE225200A358591C9B00E318DD330D
:100C9000FF33A1505F60EA882B89328073801AE0AD
:100CA0006888002303A900900B7003A9C8180022CC
:100CB00001334270102BF8D1E8882A89009B0090FC
:100CC000301C0192143814224B8201F081FC009BED
:100CD000019833807080013708351836C9E7EE2354
:100CE0005B00E358002B04D0EE225200A018FFF75F
:100CF00073FF09B0F0BD000073B5051C2B686C6A6A
:100D0000002B1DD01249231C423306221A706E6834
:100D100004310422684601F05BFC24235E43B836AC
:100D2000A619F38B01AA138001335380A08869466A
:100D3000FFF7A2FD002809D0281CFFF7B3FDDDE76F
:100D400042342378062B01D10223237073BDC046A1
:100D5000B0670200F0B5031C3F33041C0A88187802
:100D600089B08218D2B20F1C0790082A00D9082235
:100D70001A70FC235B000026E650FC2301225B0076
:100D8000E318524207995A609A60DA601A615A6110
:100D900024234B43BC33E3183D1C06930799221CC4
:100DA000711805913F321278914232D22A79A16BA3
:100DB000002A17D1FC2040002258531C92002350D7
:100DC000A2180A2305987343F932FF32506028892C
:100DD000FB189B7900906889A2880190069800F022
:100DE000D9F810E00A2070436B88A2880493C319D5
:100DF0009B79684603702889049B0190688902905A
:100E0000069800F0FDF80698013624300A35069061
:100E1000C4E7FC235B00E358002B04D0FC22520003
:100E2000A018FFF769FF09B0F0BD0000F0B5031C82
:100E300042331B7885B0041C052B30D1324B0A6835
:100E40009A4226D18A680025531BDB7B69466B5486
:100E50000135102DF8D1EE225200A618301CFFF7F4
:100E60000DFD1823584340302418012323712A1CF8
:100E7000601D694601F0ACFB6B466A4602331B7885
:100E8000033212781B021343E382301CFFF7A4FEE7
:100E900038E0EE235B00C018FFF7F0FC32E0062BD1
:100EA00030D11A4B0A689A4227D18A680025531B11
:100EB0009B7C69466B540135102DF8D1FC22520001
:100EC000A618301CFFF7EEFC24235843B830241832
:100ED0000123201C23722A1C6946093001F078FB8B
:100EE0006B466A4602331B78033212781B021343A7
:100EF0006383301CFFF700FF04E0FC235B00C01895
:100F0000FFF7D0FC05B0F0BD010010000100130098
:100F10000023CB565A1C05D0834201D1486802E019
:100F20000C31F5E7181C704710B5041C431C07D0A2
:100F3000FFF7EEFF041C431C02D10248FDF74BFBF8
:100F4000201C10BDDA67020008B5024800F0AAF8BC
:100F500008BDC0462C680200F8B5061C0C1C8F1892
:100F60000025BC4207D0336821781B68301C9847A5
:100F700001342D18F5E7281CF8BD10B50021041C1C
:100F8000402201F047FB221C40320023201C13703A
:100F9000537010BD30B503AC258804AC248842845E
:100FA00084830122047E4583151C1D400160944307
:100FB000590811402C4302259140AC439D0815402F
:100FC0000C430421AD008C43D90811402C43082563
:100FD000C900AC431D0915400C4310212D018C4361
:100FE0002C43590920259B09AC4311401A40930119
:100FF0004901221C0A4340218A431A43027630BD2C
:10100000F0B589B00FAD2D880EAC019510AD2D88CF
:1010100001604284002103AA24780095117003AA7C
:101020005718002501317D701029F8D15382031D16
:10103000E0CAE0C3A0CAA0C30123019E027E1D1C1A
:10104000254046839A4366081E402A4302259E4057
:10105000AA43A5081D4032430426AD00B243E6086A
:101060001E402A430825F600AA43324325091D40A5
:101070008A432D01111C294362092025A4091A4025
:10108000A94323409C0152010B1C13434022009FA3
:10109000934323438783037609B0F0BDC183704730
:1010A0000184704738B50368041CDB68984763689F
:1010B0005A682368002A02D19B68984714E05B684D
:1010C0001568984763682D1A002D08DC5A689168E6
:1010D00059601B68002BEAD050689847E7E75B68C7
:1010E000226818681369984738BD08B500F002F8FF
:1010F00008BD000010B5041E02D1012400E098478D
:10110000201C01F037FA002805D1034B1B68002B87
:10111000F5D101F0D5F910BDDC35002008B5002867
:1011200001D001F031FA08BD026808B501231A4266
:1011300007D14278002A01D001F0C2F94370181C8F
:1011400000E0002008BD01230360704708B5031CC0
:10115000081C191C01F0BCF908BD00000B1C011C87
:10116000021C30B519430220002900D130BD802176
:1011700009068B4216D00D4904205C180C498C429C
:10118000F4D90C4D5C198C42F0D90B4C590049082C
:101190000320A142EAD9074C0020A142E6D15042E7
:1011A0005041E3E7002AE1D0EFE7C0460000F0FF3E
:1011B000FFFFDF7F0000F07FFFFF0F000000000057
:1011C000F0B546464F46C0B48FB0161C1F1C0090A9
:1011D000019100F0ADF9BC4A0023D356041C0D1C4C
:1011E000904602940395013305D0301C391CFFF75B
:1011F000B5FF002806D1029803990FB00CBC9046A9
:101200009946F0BD00980199FFF7A8FF8146002894
:1012100031D1301C391CA14B9F4A01F0BFFE002880
:10122000E9D001230493A94B04AC63604B462362CD
:10123000009A019BA260E360994A9A4BA261E36124
:1012400042460023D356266167615A1C0ED0022BFA
:101250000CD0201C00F0EEFF002800D17BE0236AB8
:10126000002B03D001F044F9236A0360A269E3690B
:1012700002920393BFE700980199884B864A01F0D8
:101280008DFE002822D0301C391C844B824A01F08C
:1012900085FE051E2CD0012304938C4B04AC6360A7
:1012A00000232362009A019BA260E3607B4B7A4A91
:1012B000A261E36142460023D35626616761002B99
:1012C000C7D0774A774BA261E361CFE7201C291C86
:1012D00000F0A8FF8146002842D0201C291C6F4B3B
:1012E0006D4A01F05BFE00286CD10294039582E701
:1012F000301C391C00F096FF002800D17BE7301C21
:10130000391C664B644A01F04FFE002800D172E799
:10131000012304936D4B04AC6360009A019BA260AF
:10132000E36043461978256226616761002900D190
:101330007AE05D4A5D4BA261E36102293CD101F094
:10134000D7F821230360236A002B8FD001F0D0F857
:10135000226A02608AE701F0CBF8212303607EE76E
:101360000098019900F05EFF0028B6D0301C391CAF
:1013700000F058FF0028B0D0201C291CFFF7EEFE1B
:1013800004AC002855D101230493504B20626360C4
:10139000009A019BA260E36043461D782661676165
:1013A000002D41D03D493C48021C0B1C02F054FF6B
:1013B000A061E161022DC2D0201C00F03BFF00289B
:1013C000C1D1BCE70098019900F02CFF029403956D
:1013D000002800D10FE7301C391C00F023FF0294D5
:1013E0000395002800D106E704AC0423049326618A
:1013F0006761364B636000232362009A019BA26001
:10140000E360264B244AA261E36142460023D3569F
:10141000022B04D0201C00F00DFF002893D101F016
:1014200067F8222303608EE71C4B1B4AA261E3612D
:10143000C2E703230493254B2661676163604B4633
:101440002362009A019BA260E36042460023D356C8
:10145000002B3DD1164A174B00980199A261E36118
:101460000E4B0D4A01F0A0FD0028CED0124A134BBE
:10147000301C391C03F05AFB061C0F1C00F0E4FE64
:10148000321C3B1C01F08AFD0028BED10C4A0D4BDA
:10149000A261E361B9E7C04600000000000000005F
:1014A000000000000000F03F000000000000F0FF1E
:1014B000000000E0FFFFEF47000000000000E03FF9
:1014C000000000E0FFFFEFC7202800203468020082
:1014D000104B0F4A00980199A261E3610E4A0F4B2D
:1014E00001F062FD002890D00D4A0E4B301C391CD3
:1014F00003F01CFB061C0F1C00F0A6FE321C3B1C5C
:1015000001F04CFD002800D07FE7074A074B7AE73F
:10151000000000000000F07F00000000000000005C
:10152000000000000000E03F000000000000F0FFAD
:10153000F0B55F4656464D464446F0B499464B4694
:101540005C00934664088FB00D1C0F1C5A46211C8A
:101550000090061C824602935846114337D069001A
:10156000490888466849049588452BDC28D0664997
:101570008C4227DC00D180E00021089104990029E9
:1015800000DA7EE0002833D15F4B9C4200D196E028
:101590005E4B9C426AD002988023DB05984201D1C1
:1015A00000F0E1FB5A4B0299994221D1049A002A9A
:1015B0001EDB291C009800F04BFD061C0D1C08E0EA
:1015C000002ED4D0534A131C434433430AD14F4D09
:1015D0000026301C291C0FB03CBC90469946A24600
:1015E000AB46F0BD4C4800F027FE061C0D1CF0E792
:1015F0000098291C00F012FE534606908C46002BE2
:1016000020D0FB0F013B0493049E089B33436AD018
:10161000424B9C4200DC8DE0414B9C4201DC00F0DF
:1016200035FC404B984500DC89E3029E002E00DC2F
:1016300089E334493248021C0B1C03F077FA061C7C
:101640000D1CC6E74046002804D0304BBA00920873
:101650009A42D6D1029C002C01DA00F0C4FB049E11
:10166000002E00DA73E3069E6546B2E7029C002C6A
:1016700001DA00F076FC009EABE7002800D17BE7A2
:10168000A0E729498C422BDC26498C4200DC79E713
:1016900021158C4625498C4501DC00F086FC244B45
:1016A00061465B1A111CD9400A1C9A40824200D044
:1016B00068E701220A4002239B1A089362E7154A51
:1016C000131C4344334300D181E7164B984500DC9B
:1016D0007FE3029C002C00DA35E35E464D4678E756
:1016E000022108914EE70098009A291C2B1C03F058
:1016F000ADFC021C0B1C02F0AFFD061C0D1C68E7C4
:101700009C7500883CE4377E0000F07F0000F03FCD
:101710000000E03F000010C0686802000000E041E7
:101720000000F043FFFFEF3FFFFF3F4313040000C3
:1017300033040000E24A0023904509DC0698C54BBB
:10174000C34A614603F0F2F93523069088465B42AE
:101750004046DC4902155218D21892460303DA4D6E
:10176000DA4A1B0B1D43934201DC00F0F6FBD84A1A
:10177000934201DC00F036FCD64B01229244ED1876
:1017800000240021069A2B1C06920793C900D24B15
:1017900088464344186859680A900B910A9A0B9B33
:1017A0000698079903F052FC0A9A0B9B061C0F1C23
:1017B0000698079902F034FA021C0B1CA648A749A8
:1017C00002F04AFD0C900D910C9A0D9B301C391CB7
:1017D00003F0ACF9029003910B1C802189056D1078
:1017E000802000220D430003009201939C4A9D4BF0
:1017F00029180B1900980199141C1D1C03F096F967
:10180000021C0B1C301C391C03F020FC0A9A0B9B99
:10181000061C0F1C201C291C03F018FC021C0B1CAE
:101820000698079903F012FC021C0B1C0098019902
:1018300003F07CF9021C0B1C301C391C03F006FC65
:101840000C9A0D9B03F072F9069007910298039988
:10185000021C0B1C03F06AF9041C0D1C221C2B1C1F
:1018600003F064F9804A814B061C0F1C201C291CC4
:1018700003F05CF97E4A7F4B02F0D2F9221C2B1C4C
:1018800003F054F97C4A7D4B02F0CAF9221C2B1C50
:1018900003F04CF97A4A7B4B02F0C2F9221C2B1C54
:1018A00003F044F9784A794B02F0BAF9221C2B1C58
:1018B00003F03CF9764A774B02F0B2F9021C0B1C9C
:1018C000301C391C03F032F9029A039B041C0D1CD6
:1018D0000098019902F0A4F9069A079B03F026F9F3
:1018E000221C2B1C02F09CF9061C0F1C009801996D
:1018F000021C0B1C03F01AF9674A684B0A900B9103
:1019000002F08EF9321C3B1C02F08AF900240D1CF7
:10191000221C009801992B1C03F008F9221C2B1C97
:10192000009001910698079903F000F95A4A5B4B21
:1019300006900791201C291C03F088FB0A9A0B9B38
:1019400003F084FB021C0B1C301C391C03F07EFBD3
:10195000029A039B03F0EAF8021C0B1C06980799F5
:1019600002F05EF9061C0F1C321C3B1C009801990A
:1019700002F056F94A4A4B4B0024201C0D1C03F080
:10198000D5F8494A494B06900791201C291C03F0C1
:10199000CDF8009A019B02900391201C291C03F0B2
:1019A00055FB021C0B1C301C391C03F04FFB404A3A
:1019B000404B03F0BBF8021C0B1C0298039902F089
:1019C0002FF9464B43441A685B6802F029F9061C5C
:1019D00050460F1C03F064FE0D1C4149041C414499
:1019E0000A684B680698079902920393321C3B1CC5
:1019F00002F016F9029A039B02F012F9221C2B1C2A
:101A000002F00EF900220B1C00920193101C2B1CFB
:101A1000221C03F01BFB029A039B03F017FB069AA0
:101A2000079B03F013FB021C0B1C301C391C03F03A
:101A30000DFB02900391089B049C013B234300D0C3
:101A4000C2E11D481D49049005914BE0C046C046C7
:101A50000000000000004043000000000000F03FD4
:101A60000000000000000000EF4E454A287ECA3FFB
:101A700065DBC9934A86CD3F01411DA96074D13F02
:101A80004D268F515555D53FFFAB6FDBB66DDB3F14
:101A9000033333333333E33F0000000000000840DA
:101AA000000000E009C7EE3FF5015B14E02F3EBEE9
:101AB000FD033ADC09C7EE3F000000000000F0BF64
:101AC000FFFF0F0001FCFFFF0000F03F8E980300B6
