:020000040001F9
:108000005036002059B701006BB701000D81010007
:108010000000000000000000000000000000000060
:108020000000000000000000000000006FB7010029
:10803000000000000000000071B7010073B70100EC
:1080400075B7010075B7010075B7010075B701007C
:1080500065C101000000000075B7010075B701009F
:1080600075B7010075B7010075B7010075B701005C
:1080700075B7010075B7010075B7010075B701004C
:1080800075B7010075B70100F1A5010075B70100D2
:1080900075B7010075B701005FBF010075B701003A
:1080A00075B7010075B70100000000000000000076
:1080B00000000000000000000000000000000000C0
:1080C0000348854604F03EFA0048004795810100C8
:1080D0005036002010B508E0032205231B070724B3
:1080E00024021B1984001A51401C8842F4D910BD87
:1080F0000121022000F098F90021032000F094F9FA
:1081000000BFFEE7FFF7F4FFFFF7F2FFFFF7F0FF16
:1081100010B50446204600F003FE204600F05EF94C
:1081200010BD10B5044600BF012000074B49886010
:10813000C86000BF2078030004F02AFA0506040591
:108140001110140000BF00BF6088012800DD09E0A5
:1081500062681178A07800F067F903E002E000F0AF
:10816000C6F800BF00BF10BD10B518211320FFF7DF
:10817000B1FF002007E00146133101228A40374B4E
:108180009A6000BF401C0428F5D320210020FFF78F
:10819000A1FF10BD88B0012031494860FFF7E4FF1E
:1081A00010202E49886000BF002348222D49052059
:1081B00003F08DFE054600BF2E46002E05D000BF01
:1081C000002211463046FFF79FFF00BF00BF264840
:1081D00003F0B3FE254803F0B9FE2548049064205F
:1081E00006902620694608750520079004A80FC848
:1081F00000F08CFC044600BF2546002D05D000BFD2
:10820000002211462846FFF77FFF00BF00250FE040
:10821000A8B200F000FD044600BF2646002E05D09F
:1082200000BF002211463046FFF76EFF00BF6D1CF5
:10823000022DEDD300F05BF810200849C8600BE078
:1082400001A800F096FD002805D101A8FFF769FFFD
:10825000029800F0B6FD48DFF2E70000000500508C
:10826000400500401C21002011810100398D0100D2
:10827000D6BE898E10B50446208850280BD05128D0
:1082800002D0522808D100E007E0A08800231A4657
:108290001946A9DF01E000E000BF00BF10BD70B5C6
:1082A000044620881038030004F072F90906071EFE
:1082B0000A1E1E1E1D1C1E0017E0534873DF14E02B
:1082C00000BFA0880023514A19467FDF0546002DD4
:1082D00006D000BF002211462846FFF715FF00BF59
:1082E00000BF02E001E000E000BF00BF70BD70B55C
:1082F00096B00020159010A9087414A860DF0446F9
:10830000002C0DD0082C0BD000BF2646002E06D026
:1083100000BF002211463046FFF7F6FE00BF00BF47
:10832000062530213A4804F09DF83948C5700220EE
:108330003749087037480068139011A871DF044668
:1083400000BF2646002E06D000BF00221146304650
:10835000FFF7DAFE00BF00BF11A84079000211A9A3
:108360008979084302462CA101A804F0FDF801A870
:1083700004F083F886B2324601A913A87CDF0446D4
:1083800000BF2646002E06D000BF00221146304610
:10839000FFF7BAFE00BF00BF00211D4803F0F2FC4A
:1083A000044600BF2646002E06D000BF002211461C
:1083B0003046FFF7A9FE00BF00BF134873DF044635
:1083C00000BF2646002E06D000BF002211463046D0
:1083D000FFF79AFE00BF00BF16B070BD10B504468F
:1083E0002088F0210840102802D0502808D103E04E
:1083F0002046FFF754FF04E02046FFF73BFF00E074
:1084000000BF00BF10BD0000002000201820002089
:108410006421002080C701007262635F6D6573682C
:108420002023256400000000002906D102461332F3
:1084300001239340044A936005E00246133201236E
:108440009340014AD3607047000500500EB50A28DA
:1084500004DC4100091DFE4A916013E0242804DC7D
:108460004100891DFA4A91600CE0FA4B0ECB029351
:10847000019200910146253989006A465158F44A13
:10848000916000BF4106490EF14A403251610EBD74
:1084900000B58BB006A9F04802F047F8012201A907
:1084A000ED4802F01FF8EC4802F017F8022807D157
:1084B000EA480068002803D0E848C068002805D0D2
:1084C00008A841796846407C814202D001200BB067
:1084D00000BD0020FBE7F0B593B00546E04800681A
:1084E000002801D0012000E000200646DC48C068DA
:1084F00012900DA9D84801F0C9FF044600BF2746D5
:10850000002F06D000BF002211463846FFF7FCFDC1
:1085100000BF00BFD34800680C210840002801D0EC
:10852000012000E000200C900020CE490860CA48DD
:1085300001F0A3FF002808D000BF00BF0220CA49F5
:1085400008700120C9490861A8E000200B9006A925
:10855000C14801F0EAFF0798002808D000F0C8FCE5
:1085600007460798B84201D20020079000BF07983D
:10857000002811D10120BB49086008A8017D684688
:10858000007E81420FD110A8417808A8407981422D
:1085900009D101200B9006E0B44B0833B44A022005
:1085A000079900F03AFDAA49089848606846007E9D
:1085B000012803D06846007E022816D100BF00BF04
:1085C00008A80179A24801630020A7490870022089
:1085D000A84948600C9800281DD108A94879FFF7E0
:1085E00035FF0120A149486015E000BF00BF08A881
:1085F00000799749C86201209B49087002209D4973
:1086000088600C98002806D108A94879FFF71EFF5A
:108610000120964908600B98002802D00120934958
:1086200088608D4801F059FF012806D18D48006807
:10863000022108438B4908602FE0012201A98648E6
:1086400001F050FF68460179007E814205D16846FD
:10865000417C08A8407981421ED06946487CFFF7DA
:10866000F5FE80480068022108437E49086069469B
:108670000879012803D068460079022806D1794894
:108680000068082108437749086005E075480068DC
:10869000042108437349086000BF00BF11980028F7
:1086A00033D00321C9031198884204D3012149071B
:1086B0001198884209D900BF102700BF0022114637
:1086C0001020FFF721FD00BF00BF08A8007D012892
:1086D00003D008A8007D022813D1002D03D0002E5E
:1086E00001D0012200E000221146119B129A0F983E
:1086F0009847002D13D0002E11D000205749C86094
:108700000DE011990F98884709E000BF0E2700BFC0
:10871000002211460E20FFF7F7FC00BF00BF4E48B5
:1087200001F0ABFE002804D000BF00BF5248006833
:10873000804713B0F0BD70B504460D46012000031C
:108740004E4988600220484908700020FFF7C3FEA8
:1087500070BD70B504460D46E6202118484B494AC5
:10876000022000F05AFC3D48001D474951221201E9
:1087700089180866454944488018416688143F496D
:10878000486070BD10B500BF00BF002035490860CB
:10879000401E38498860012034490861022032496E
:1087A000087000F0DEFC10BD30B58BB02A4801F037
:1087B00094FE044619E006A9274801F0B6FE0028F9
:1087C00011D16846007E02280DD106A9224801F089
:1087D0005DFE0022D24300210A9B08989847FFF7CC
:1087E000D1FF641E00E002E000BF012CE3D800BF0F
:1087F000012C6CD106A9184801F097FE08A9487908
:10880000FFF724FE0220174908600798002808D0C7
:1088100000F06EFB05460798A84201D200200790A1
:1088200000BF0B49089848606846007E012803D0C5
:108830006846007E02282BD101200C4948600020A8
:108840000949087002200B49486000BF2AE0000077
:108850000015004084C70100942100200011004051
:1088600000140040001200402020002000100040B2
:1088700053870100001300402420002000F5014030
:10888000101000403787010000F001404880004090
:1088900002208C49886001208B4908608B49087050
:1088A00000BF00BF0798002806D189480068012151
:1088B00008438749086006E0834B0833854A022055
:1088C000079900F0AAFB08207E49486040E08248F2
:1088D00001F003FEC5B2002D01D100BF00BFFFF7BC
:1088E000D7FD002833D1022D31D106A97A4801F0F5
:1088F0001CFE012201A9784801F0F4FD6846007EC3
:10890000002801D0012000E00020694609790029F3
:1089100001D0012100E00021884206D16C480068A6
:10892000022188436A49086010E0684600790028FF
:1089300006D167480068042108436549086005E0DE
:1089400063480068082108436149086000BF00BF10
:108950000BB030BD70B504460D4600205F49C863BA
:108960000120C86300205E49C8600320086102201E
:10897000886025205A4940314861200E5849486294
:108980002002000A0002C8610020C86201200863BA
:10899000544848615448886154488863FF20043033
:1089A00048635348C86394204D4940314860474864
:1089B000007803280BD10820474988604D4808609B
:1089C0001420486000204861084601F045FD02205F
:1089D0003E490870012001218140474A116000BFD3
:1089E00000BF01218140454A116000BF4448056035
:1089F000394801F042FD002803D041480068804713
:108A000008E000F0B7FE002804D001203D490870BE
:108A100000F050F870BD70B50446EFF31080C50744
:108A2000ED0F72B621462C4803F07DFE002804D0DD
:108A3000002D00D162B6002070BD00F09BFE002822
:108A400004D001202F49087000F034F8002D00D127
:108A500062B60120F0E710B52A480078002804D05B
:108A6000002028490870FFF79FFE2748C0680128AA
:108A700005D100202449C8600120FFF72CFD1348D0
:108A80000078002806D001280CD002280BD003283B
:108A90000BD109E01C484068012802D1022000F0F7
:108AA00060FB00BF01E000E000BF00BF00201649EE
:108AB000486010BDC206D20E012191400E4A803A94
:108AC000116070470013004000100040202000207B
:108AD000001200405387010094210020C01F004075
:108AE0000015004006010200250003025B0600009D
:108AF00055555500AC21002080E200E000E100E087
:108B00002420002028200020001100401FB584B040
:108B10000021039103A812DF6846007B002802D1E0
:108B2000022008B010BDAE480078002801D008200F
:108B3000F7E70698052803D3AA490698884201D981
:108B40000720EEE701F06DFD02F0C8FC6A46117DDA
:108B5000049801F08BFB7D22D20006995143084610
:108B600002F03DF90446002C01D02046D9E7002050
:108B700002906946087101A860DF0446002C03D00A
:108B8000082C01D02046CCE76B46197D069A049844
:108B900001F013F90446002C01D02046C1E70798E4
:108BA00000F007FD9049049808606846007D8F49F1
:108BB00008708F49069808600120894908701020C4
:108BC0008C4988608C4808600C204860002048610F
:108BD000084601F041FC0020A3E710B5804800786A
:108BE000022801D0082010BD0121844800F02AFB92
:108BF00001207B4908700020F5E710B5784800781F
:108C0000012801D0082010BD00F092FD0220744917
:108C100008700020F7E710B50446204602F054FB28
:108C200010BD10B50446204602F0B6FB10BD70B56D
:108C300004460D466A480078002801D1082070BD1E
:108C40002946204602F0F9FBF9E770B504460D46C7
:108C500063480078002801D1082070BD29462046CD
:108C600002F0EEFAF9E770B505460E4614465C4888
:108C70000078002801D1082070BD6148854201D1EB
:108C80001020F9E7E2B23146284601F0C6F8E2B218
:108C90003146284602F023FA052801D10320EBE7EC
:108CA0000020E9E770B504460D46164632462946CF
:108CB000204602F08DFA70BD014649480078002830
:108CC00001D1082070474848006808600020F9E793
:108CD000014643480078002801D1082070474348E6
:108CE000007808700020F9E701463D480078002828
:108CF00001D1082070473E48006808600020F9E76D
:108D000070B504460D462946204602F0C0FB70BDF2
:108D100070B504460D462946204602F0B6FA70BDED
:108D200010B504462E480078002800D110BD20461A
:108D300001F095F800BFF9E710B50446204600F0B1
:108D4000ACFA10BD70B5044625480078002801D162
:108D5000082070BD2146274803F0E5FC0546002D9C
:108D600005D16068002802D0606802F0E2FB284666
:108D7000EFE710B504461A480078002801D1082012
:108D800010BD21461B4801F081FB002801D00520C1
:108D9000F6E70020F4E710B50446114800780028F3
:108DA00001D1082010BD002C01D10E20FAE7214688
:108DB000104801F0BAFB002801D00520F2E700209E
:108DC000F0E710B5044606480078002801D10820D5
:108DD00010BD002C02D0204602F0CBFB0020F7E7AC
:108DE0002C20002060EA00003020002034200020E9
:108DF000382000204C220020642200201027000090
:108E0000FFFF0000F0B585B00026002460E0F848C0
:108E1000A100405800285AD00021F548A2008150F6
:108E20002046103001218140F24881600120A0409D
:108E3000F14909780840002849D0A000EF490D58B1
:108E40000120A040EC4909788143EB4801700126DC
:108E5000002C02D10020EA4908700320C00385429B
:108E600003D301204007854209D900BF102700BF66
:108E7000002211461020FFF747F900BF00BF012074
:108E8000A040E04909780840002810D00120A04007
:108E9000DC4909788143DB480170DB4815218901F1
:108EA0004018A100425810460021A8470EE00020BB
:108EB000694608700195D448152189014018A10020
:108EC00041580291684601F0D6FB00BF00BF641C08
:108ED000032C9CD3002E09D100BF032400BF002225
:108EE00011460320FFF710F900BF00BF05B0F0BD29
:108EF00010B5082000F073F90024C148007800285C
:108F000009D00021BA48C1600121BF48C1641521C0
:108F100089014018C468082000F05AF9204610BDA5
:108F2000F7B584B004460F46082000F058F9002C2D
:108F300002D10120B2490870B1480078002832D02F
:108F4000FFF7D6FF002605463246C82100206918E3
:108F50004241C91B82411BD2A100A84A0698505029
:108F60000120A040A44909780843A3490870A648F5
:108F7000152189014018A100475000219C48A200FA
:108F8000815020461030012181409A48416009E01B
:108F9000002069460870069801900295684601F025
:108FA0006AFB00BF00BF082000F012F907B0F0BD57
:108FB00070B504460D461646082000F010F9002C46
:108FC00002D101208E4908708D480078002820D0F9
:108FD0000120A0408B49097808438A490870A00005
:108FE00086490E500120A0408349097808438249F0
:108FF00008708548152189014018A10045500021BD
:109000007B48A200815020461030012181407948E0
:109010004160082000F0DCF870BDFFB585B0044663
:109020000F46082000F0DBF8002C02D10120744923
:10903000087073480078002850D0FFF759FF0026C9
:1090400005463246C821002069184241C91B8241A9
:1090500036D2A100694A079850500120A0406649C5
:109060000978084364490870674815218901401848
:10907000A100475000215E48A200815020461030D8
:10908000012181405B4841605948A10041185F4877
:1090900051221201821820460830C00011505B494D
:1090A000512212018A1821460831C9005118089826
:1090B00048602046083001218140554841600CE05D
:1090C00000206946087107980290039501A801F0F5
:1090D000D2FA01210898016000BF00BF082000F00B
:1090E00077F809B0F0BD70B504460D461646082065
:1090F00000F075F8002C02D1012041490870404869
:109100000078002829D000213948A200815020464B
:10911000103001218140374881603B481521890189
:109120004018A10045503248A1004118374851224B
:109130001201821820460830C000115033485121D6
:109140000901411820460830C00008184660204632
:109150000830012181402E484160082000F038F895
:1091600070BD10B50446082000F039F8002C02D17B
:1091700001202349087022480078002814D0032CCD
:1091800012DA20461030012181401A488160012006
:10919000A0401949097881431748017020460830DA
:1091A000012181401A488160082000F011F810BDAB
:1091B00010B500200E49086000210D484160816013
:1091C000C160082000F004F800200B49087010BDB1
:1091D000C206D20E012191400E4A11607047C206AC
:1091E000D20E012191400B4A80321160704700007D
:1091F00040810040008300403C20002024230020C8
:109200003E2000203D2000200080004000F0014072
:1092100000F5014000E100E0FEB5F84860C8F848FC
:10922000002704682846314622463B4603F0C4F82E
:10923000F44A00230191009003F08EF87D21C900CB
:109240004018FEBDF8B504460D46002D1ED0EE4870
:1092500084600320ED490870EB4848600020EC4929
:109260000C604860EB480078002815D1E64850DFD4
:10927000064600BF3746002F06D000BF0022114629
:109280003846FEF741FF00BF00BF05E0DE488460BE
:109290000020DF490C604860F8BD70B50446201F0F
:1092A000030003F075F90518281D040D2D00DA4898
:1092B0000078012803D00121D848FFF7C3FF2AE036
:1092C00000BF0B2500BF002211460B20FEF71CFF3C
:1092D00000BF00BF1FE00121D148FFF7B3FF1AE034
:1092E00000BF0B2500BF002211460B20FEF70CFF2C
:1092F00000BF00BF0FE00121C848FFF7A3FF0AE04D
:1093000000BF082500BF002211460820FEF7FCFE22
:1093100000BF00BF00BF00BF70BD0122C14B1A706B
:1093200070477CB5C0484468C04801684068002365
:1093300059405840014305D1BD4801684068BB4AC7
:10934000116050600020B94A06CA611A904108D2E3
:10935000B84820180021B54B0CCB851A99410E4610
:1093600005E00020B14A06CA651A90410646002071
:10937000AE490C604860690CF0030843E9037D22A4
:10938000D2000023009101900846019902F0E4FF09
:10939000A94B0CCB80185941A74A03C27CBD10B51C
:1093A0009C490978002913D094490B684968002228
:1093B0001B185141A14A0024D21A8C4103D28F4973
:1093C00009689E4A501A0121904A1170114648605E
:1093D00010BD70B50446002C02D18F49087026E0FC
:1093E0008D480078012802D002281ED10EE002200C
:1093F000864908700020924908708A49087001F077
:1094000057F900208F490860804870BD01218348CA
:10941000FFF718FF00208A4908708249087001F0A0
:1094200047F9FFF7AFF97948EFE700BF00BF002029
:1094300076490870012077490870230003F0A8F8E6
:1094400005043E3B77418A0001207D4908700020D9
:10945000744908707C4908607A480068002801D087
:10946000FFF75FFF02F043F801F027F9FFF7A0FED6
:1094700000F00BFF754876490860654903C95F4AEB
:1094800003C2FFF7C9FE5D4909680D1A714A2946F2
:109490000020FFF78DFD6E480068FFF780FF6948E8
:1094A0000068401C67490860002803D1084600682E
:1094B000401C086059E0FFF7CEFA56E0FFF7A2FC27
:1094C00053E04E480368416863480068002218185A
:1094D00051414A4A03C200205F4908605A48006867
:1094E000401C594908600020FFF73BFEFFF794FE3F
:1094F000424909680D1A574A29460020FFF758FDCE
:109500000020424908703D48036840685049096896
:1095100000255A186841494BD21AA84104D24C4838
:109520000068FFF73CFF01E001F04CFE1DE04848F9
:109530000068400846490860084600687D21C90067
:10954000884204D942480068FFF729FF01E001F092
:1095500039FE0AE000BF082500BF0022114608209E
:10956000FEF7D2FD00BF00BF00BF00BF2D4800784E
:1095700000280DD001212948FFF764FE0020304962
:1095800008702849087001F093F8FFF7FBF80BE02A
:109590001E480078012804D11C4840682E49086004
:1095A00002E000202C49086000201A490870174882
:1095B0002BE770B5054629480078002800D070BD1B
:1095C0002B0002F0E5FF095A4D120A065652160EFC
:1095D0005A0064200A49086053E096200849086050
:1095E0004FE01420064908604BE0FA200449086067
:1095F00047E01E200249086043E000006820002088
:109600009420002040420F005020002060200020C5
:1096100070200020882000208C20002010270000CF
:10962000B80B00008B20002000B50040A0200020D7
:1096300078200020FFFFFF00802000208096980007
:1096400089200020B0200020AC20002050C3000062
:10965000902000201B930100A82000208A200020D9
:10966000FF20F530484908600BE032204649086089
:1096700007E014204449086003E0FA2042490860EA
:1096800000BF00BF00204149087001204049087018
:1096900016202EDF044600BF2646002E06D000BF4F
:1096A000002211463046FEF72FFD00BF00BF3948AB
:1096B0004EDF044600BF2646002E06D000BF002223
:1096C00011463046FEF720FD00BF00BF324840681B
:1096D0000021324A03C232490020324A11605060F0
:1096E000012110460068FFF7ADFD00BF67E770B5C8
:1096F00004460D461646002E12D02B48C4608560E5
:1097000003202A49087028484860002028490C6036
:1097100048601E480078002809D1234850DF06E041
:109720002148C4608560002021490C60486070BDFC
:1097300010B501201F49087000F01FF810BD10B5CA
:1097400002201C490870012000F017F810BD1A49CA
:1097500003C9704719480078002801D101467047B5
:1097600010480268406814490B684968D2184141A2
:109770001046F4E7114800787047C206D20E012166
:1097800091400F4A116070479420002088200020EB
:109790008A200020D393010000B5004078200020EB
:1097A00010270000682000204020002060200020BA
:1097B000702000208C2000208020002089200020A4
:1097C00000E200E0C6480079C006C54A5268520966
:1097D0001043C34A1268111AC14800894004C04AA4
:1097E0009268D20B1043BE4A52685040BC4A106087
:1097F00010468068D2688018B94A50601046C06828
:1098000040189060104600684018D0601046C0684C
:1098100070477CB500BF01A839DF044600BF25466C
:10982000002D06D000BF002211462846FEF76CFC32
:1098300000BF00BF684600790428ECDB04216846BD
:109840003ADF044600BF2546002D06D000BF0022A7
:1098500011462846FEF758FC00BF00BFA148A049AA
:1098600008600098C86088604860002502E0FFF743
:10987000A9FF6D1C142DFAD37CBD0146087DFF287D
:1098800001D0012070470020FCE77CB5044620464B
:10989000FFF7F3FF002815D0002020752046083080
:1098A00002F009FE05460E462046103002F0F9FD92
:1098B000002128184E412246083231460196009078
:1098C00002F010FE7CBDF0B585B00446FFF77AFFCC
:1098D00005462046103002F0E4FD400800210391C7
:1098E00002902046083002F0E6FD039B029A87189A
:1098F0000E465E412846002102F02EFDB8185E415A
:10990000224631460196009002F0ECFD05B0F0BD14
:10991000F0B51FB482B004462046083002F0CBFDFB
:10992000049B059A181A8A4155D32046FFF7A5FFD4
:10993000002850D02046103002F0B3FD6A49096873
:109940006A4A1268514388420AD22046103002F017
:10995000A8FD450021461031284602F0BAFD09E075
:1099600061490968614A126851430846214610312D
:1099700002F0AFFD002020752046103002F091FD6E
:10998000002605462046083002F095FD059B049A06
:10999000101A8B412A46019300903346019902F038
:1099A000DBFC07462046083002F085FD05460E46E2
:1099B0002046103002F075FD791C484300212A181A
:1099C00030464841009201902246083201990098A1
:1099D00002F088FD00BF07B0F0BD70B506460C462A
:1099E0001546424806604048046041480570FFF74C
:1099F00010FF70BD70B5044615461E462046FFF7A1
:109A00003CFF00280BD02A4633462046FFF780FF54
:109A1000207D401CFF2802D0207D401C207570BD99
:109A200070B5044615461E46224608322846314681
:109A300002F058FD214610312C48006802F049FD23
:109A40002046FFF740FF2046FFF71FFF70BD70B5AF
:109A5000044615461E462046103002F022FD2349DA
:109A60000968884204D92A4633462046FFF7D8FFC2
:109A700070BD10B504462046FFF725FF10BDF8B5B0
:109A800007460C4615461E463846FFF7F6FE0028E8
:109A900001D1207013E0387D15490978884201DA38
:109AA000012000E0002020702A4633463846FFF7A8
:109AB0002FFF2078002802D13846FFF704FFF8BDB9
:109AC000FF210175704710B50446207DFF2806D19F
:109AD00000202075002213462046FFF7A1FF10BD8D
:109AE00030230020ED5EEAF1B8200020B4200020F1
:109AF000BC20002010B586B00446FB480088FB4916
:109B0000884202D1FA4806B010BDFA488078002891
:109B100002D1F748401EF6E705A862DF002801D011
:109B20001120F0E76846007D002802D1F048801C33
:109B3000E9E7F0488189684681800121817100212F
:109B40000181207802280FD004DC002807D00128EA
:109B500011D108E011280BD012280CD105E0E078D3
:109B6000001D00900AE000BF00BF0520009005E046
:109B70000320009002E00120009000BF00BF684673
:109B80000390049401A9D8480088A6DFBBE730B54C
:109B900087B004460D4611216846017044708570F7
:109BA000FFF7A8FF07B030BD30B593B004460020E2
:109BB000129000BF10A8007A01090901491C10A8E1
:109BC0000172007AF0218843103010A9087200BF9A
:109BD00000BF10A8407A01090901491C10A8417270
:109BE000407AF0218843103010A9487200BF10A8B5
:109BF000807A06218843811C10A881721C210BA841
:109C000002F030FC08A8007B02218843811C08A8D0
:109C10000173007B10218843411808A801730020BC
:109C20000E9012A8109000200C900F900A9008A897
:109C3000007AF02188430146103108A80172007AA9
:109C400001090901491C08A80172407AF0218843E2
:109C50000146103108A84172407A01090901491CE6
:109C600008A84172807A08218843014608A88172B9
:109C7000807A10218843014608A88172807A4108C1
:109C8000490008A88172807A06218843811C08A8AF
:109C900081729948017808A88171042168468184FD
:109CA0002068069060680790217A08A80170142146
:109CB00001A802F0D7FB0921684681810021C181FA
:109CC0000921018209A8019006A805900AA802901E
:109CD000884908880B1D01AA0BA9A2DF0546002DA3
:109CE00002D0032013B030BD0020FBE710B590B0C8
:109CF0001C2109A802F0B6FB08A8007904218843BA
:109D0000011D08A80171007910218843411808A895
:109D1000017100200E900F900A900D90089008A8F5
:109D20004078F02188430146103108A841704078FE
:109D300001090901491C08A841708078062188435F
:109D4000811C08A88170807808218843014608A8F2
:109D50008170807810218843014608A8817080783E
:109D600041084900491C08A8817063480178684689
:109D700081770521818300210191142102A802F03D
:109D800071FB012168460182002141821B218182F1
:109D900008A8039007A8029001A8069055490888D2
:109DA0000B460C3302AA09A9A2DF0446002C02D0FC
:109DB000032010B010BD0020FBE7F0B585B00546CC
:109DC0000E46174601950297684606730121817079
:109DD0004A490180474A69460120A0DF0446002C19
:109DE00002D0032005B0F0BD4349454863DF044677
:109DF000002C01D02046F5E701A8FFF7D5FE044668
:109E0000002C01D02046EDE7FFF770FF0446002C40
:109E100001D02046E6E70020E4E770B588B00546AB
:109E20000E461446172C02DD092008B070BD2E48DE
:109E300000882E49884210D0002168460171457182
:109E4000290A817101A8C4702246314602A802F095
:109E5000F0FA01A8FFF74EFEE7E72548E5E7F0B581
:109E600089B005462888502873D1E8882149898916
:109E700088426FD12C4620342078002804D0012855
:109E80006BD0022868D1B7E0A1786278080210434D
:109E90001649884204D12078F221FFF778FE13E1B9
:109EA000E278A3786778190239430846211D01F04A
:109EB00016F90646201D0790E17808A80170A178E0
:109EC00060780902014368464183012141840120F1
:109ED0000590300016D0012818D004281AD101208E
:109EE000694608761DE00000C0200020FFFF00004A
:109EF0000230000040230020BE200020E4FE0000CD
:109F000090C701000220694608760AE000206946F1
:109F1000087606E02078F021FFF739FE0020059052
:109F200000BF00BF0598002812D000BF06A8FEF7AA
:109F300009FF0746002F06D000BF00221146384611
:109F4000FEF7E2F800BF00BF20788021FFF71FFE78
:109F5000BAE0D9E0BAE000E0B1E0E078002802D051
:109F6000012842D118E02279002A01D0012200E024
:109F700000221146A37866781802304301F05DFA9A
:109F8000002804D02078F221FFF701FE32E020788B
:109F90008021FFF7FCFD2DE02079002812D0A27867
:109FA000637811021943084601F08EF9002804D0A5
:109FB0002078F221FFF7EBFD1CE020788021FFF7ED
:109FC000E6FD11E0A278637811021943084601F01A
:109FD000E3F9002804D02078F221FFF7D8FD09E04A
:109FE00020788021FFF7D3FD04E02078F321FFF7EC
:109FF000CEFD00BF00BF67E0E078002802D0012856
:10A0000056D131E0A178627808021043464988426F
:10A0100004D12078F221FFF7BAFD4EE0002008902D
:10A02000A278637811021943084608A901F02FFAB3
:10A03000002804D02078F121FFF7A9FD3DE012218E
:10A0400068460171A1786078090201436846417150
:10A05000090A8171E17801A8C17008A8017801A8F6
:10A060000171FFF747FD28E0A278637811021943D8
:10A07000084608A901F0AFF9002804D02078F221A1
:10A08000FFF785FD19E0122168460171A17860781B
:10A090000902014368464171090A8171E17801A80A
:10A0A000C17008A8017801A80171FFF723FD04E041
:10A0B0002078F321FFF76BFD00BF00BF04E020789C
:10A0C000F421FFF764FD00BF00BF2BE0E8881749CB
:10A0D0008988884209D12C462034217A206800F0F2
:10A0E000C9F8606800F069FE1CE0E9880F48008A42
:10A0F000814217D12020405D002801D0012000E0DE
:10A1000000200A4988700DE02888102803D1A8880B
:10A110000749088006E02888112803D10020C043A1
:10A120000349088009B0F0BDFFFF00004023002074
:10A13000C02000207FB504460D461646002D16D0DF
:10A1400002206946087001940296FEF7D1FE039042
:10A15000204601F0EEF9684600F08DFA002805D09F
:10A160000120B9494871204601F003FA00BF20469A
:10A1700001F0FFF97FBD00B585B00221684601708E
:10A1800000200190012168460173AF4801796846BB
:10A190004173AE48049002A801F0AAF9002801D149
:10A1A00005B000BD6846FEF736FC002802D10298D3
:10A1B00001F0DFF900BFF3E74A790B7912021A4385
:10A1C00042800A46083242600A78D21F0272704703
:10A1D000F0B585B00746384601F035FA0446002050
:10A1E0000090002C2FD06179227909021143084692
:10A1F000694601F04AF8002825D168460078002811
:10A2000021D004216846017160792279010211434D
:10A210006846C1802046083002902078C01FC1B235
:10A22000684601730021C18100BF01A8FEF78AFDC5
:10A230000546002D06D000BF002211462846FDF736
:10A2400063FF00BF00BF384601F093F9FEF750FEF0
:10A250000021054600F058FE05B0F0BD10B57A4863
:10A260004079002801D1FFF786FF10BD764A1060C3
:10A270001171704770B505460C46282C04DA7248F7
:10A2800005600471FFF75BFA70BD10B56E49086890
:10A290006F49FEF75FFB10BD10B586B00446142170
:10A2A00001A802F0DFF800200290204601F041F9F9
:10A2B000039400216846017463480179684641743B
:10A2C0006448059000216846017101A8FEF7A3FBD0
:10A2D000002805D1204601F04CF9042006B010BD3D
:10A2E0000020FBE7F0B51FB488B007463D4668780C
:10A2F000252804DD284601F03CF90DB0F0BD06220A
:10A30000E91C06A8013002F094F828784006C00F36
:10A3100069460876284601F096F90446002C03D1D8
:10A32000284601F026F9E8E7E279A37912021A43F8
:10A3300011466279237912021A43104600F0E1FBBC
:10A34000059028460B9B0A9A00F0ECFD06466946EC
:10A3500005984882330002F01BF90604284C4D4E44
:10A3600066672178C91FCAB2617923790902194346
:10A37000084621460831FFF750FD214602A8FFF7A5
:10A380001BFF02206946087200BF02A8FEF7DAFC34
:10A3900001900198002806D000BF002211460198C4
:10A3A000FDF7B2FE00BF00BF3EE02178C91FCAB270
:10A3B0006179237909021943084621460831FFF7DC
:10A3C0002CFD214602A8FFF7F7FE0020694608721F
:10A3D00000BF02A8FEF7B6FC01900198002806D045
:10A3E00000BF002211460198FDF78EFE00BF00BF9E
:10A3F0001AE019E018E0214602A8FFF7DDFE01206F
:10A400006946087200BF02A8FEF79CFC0190019803
:10A41000002806D000BF002211460198FDF774FE07
:10A4200000BF00BF00E000BF00BF284601F0A1F858
:10A4300005484079002804D0FFF79DFE002002491E
:10A44000487100BF59E70000C420002035A1010079
:10A450005DA20100D1A10100202100BF4B1E1946C1
:10A460008268DA40D207D20F002AF7D001228A4050
:10A4700082600022C260026170470146CA680869B2
:10A48000904201D1012070470020FCE770B50446DE
:10A490000D462046FFF7F1FF002801D00E2070BDC9
:10A4A000002D15D0A168491E206908406168484305
:10A4B000216846186069002804D031462846626940
:10A4C000904704E031462846626801F0B2FF00BFC1
:10A4D0002069401C20610020E1E701460A69C86844
:10A4E000801A7047F8B504460E4615462046FFF719
:10A4F000F4FFA84201D80E20F8BD20694019A168D8
:10A50000491E08406168484321684718606900286F
:10A5100004D0394630466269904704E039463046F7
:10A52000626801F086FF0020E6E770B504460D463C
:10A53000002229462046FFF7D5FF70BDC1680161A2
:10A540007047000070B504462078002804D0012828
:10A550001CD0022838D130E00321C903606888424A
:10A5600004D3012149076068884209D900BF10253A
:10A5700000BF002211461020FDF7C6FD00BF00BF3E
:10A58000A26810460021636898471EE00321C903B2
:10A590006068884204D3012149076068884209D96C
:10A5A00000BF102500BF002211461020FDF7ACFDB2
:10A5B00000BF00BF6068804707E0201D23C82A460F
:10A5C0000023FFF78FFE00BF00BF00BF70BD7FB547
:10A5D000044669462046FFF759FF0546002D05D180
:10A5E0006846FFF7AFFF012004B070BD0020FBE715
:10A5F00010B513E000247348FFF7E9FF0443FFF7A9
:10A60000A9F8002358405940084303D06E48FFF78B
:10A61000DEFF0443002C00D101E000BFEAE700BFE9
:10A6200010BD10B569480078002800D010BD082082
:10A6300064498860664808601020486000204861CE
:10A640000846FFF709FF08205F49886061480860F5
:10A6500010204860002048610846FFF7FDFE1220E8
:10A6600000F066F80321122000F072F8012057492B
:10A67000087000BFDAE770B504460026207801288C
:10A6800002D0022803D100E000BF4E4E01E04E4E42
:10A6900000BF00BF2146304602F045F80546002DB8
:10A6A00001D0284670BD122000F04AF80020F9E7DA
:10A6B00010B54548FFF742FF10BD10B54148FFF700
:10A6C000DCFE002804D04048FFF7D7FE002802D166
:10A6D000122000F035F810BDEFF31080C107C90F4C
:10A6E00072B63D4802680068401C3B4B1860002A67
:10A6F00006D1122001228240384B1A6000BF00BFF1
:10A70000002900D162B6704710B5EFF31080C4077E
:10A71000E40F72B630480068401E2F4908600028D8
:10A7200002D1122000F004F8002C00D162B610BD56
:10A73000C206D20E01219140284A803A116070472A
:10A74000C206D20E01219140244A80321160704726
:10A7500010B5002819DA224A03071B0F083B9B0893
:10A760009B00D2588307DC0EFF23A3409A438B073C
:10A770001B0E8407E40EA3401A43194B0407240F51
:10A78000083CA408A4001A511AE0144A803A032392
:10A790001B02D21883089B00D2588307DC0EFF23CC
:10A7A000A3409A438B071B0E8407E40EA3401A4371
:10A7B0000A4B803B032424021B198408A4001A516D
:10A7C00010BD000054230020EC230020CC200020EA
:10A7D0006C23002004240020D020002080E100E031
:10A7E0001CED00E00188F84A914202D1C8210180A5
:10A7F00002E00188491C0180704710B50446002C16
:10A8000000D110BDA069002804D0A06900F0B1FEFD
:10A810000020A0612046FFF756F900BFF1E770B5B0
:10A82000002511E01C206843E84940188069002891
:10A8300009D11C216943E54A881800221346FFF715
:10A84000EFF8A8B270BD6D1C142DEBD3E04804687E
:10A850000AE00A206043DF494018C0884404640CC1
:10A86000642C01D11420EDE70A206043D949401837
:10A8700000891428EDD00A2060434018C088C00B1E
:10A880000028E6D10A2060434018068914210A20D6
:10A890006043D04A801801811C217143CB4A88183B
:10A8A000FFF7ABFF3046CDE70246CB48008881B2C8
:10A8B0000CE0C7480068884201D1642070470A2034
:10A8C0004843C44BC01880884104490C0A204843BF
:10A8D000C04B185A9042ECD10846EFE770B50546D8
:10A8E000FFF7FAFE2846FFF7DFFF0446642C43D14A
:10A8F000B748008884B20CE00A206043B54940188C
:10A90000C0884404640C642C03D1FFF7FDFE20468C
:10A9100070BD0A206043AF494018C088C00B0028B2
:10A92000EAD10A2060430D520A2060434018808813
:10A930000121C90388430A216143A64A89188880F6
:10A9400000210A206043801841800A20604311469C
:10A950004018008914280FD00A21614389180989F9
:10A960001C225143994A8818FFF747FF14210A20F7
:10A970006043984A8018018195480068844225D038
:10A9800095480068844237D00A20604391494018B6
:10A9900080884004400C0A2148438E494018C088F2
:10A9A000C00BC0030A2161438A4A8918C988490437
:10A9B000490C08430A216143891889884904490CD4
:10A9C0000A225143834A8918C88015E00A2060434F
:10A9D00080494018C0884004400C7D4908600A2026
:10A9E00060437C4940188088C00BC00364300A2152
:10A9F0006143784A891888807748006884425AD031
:10AA00000A20604373494018C0884004400C642801
:10AA10001FD00A2060434018C0884004400C0A211F
:10AA200048436C4940188088C00BC0030A21614329
:10AA3000684A891889884904490C08430A216143F6
:10AA40008918C9884904490C0A225143614A891866
:10AA500088800A2060435F494018C088C00BC0034B
:10AA600064300A2161435B4A8918C8800A20604328
:10AA7000114640188088C00BC00357490988490413
:10AA8000490C08430A2161438918888052480068AC
:10AA90000A21484311464018C088C00BC003610416
:10AAA000490C08434C4909680A225143494A89180C
:10AAB000C88049480460484800680A21484345491D
:10AAC0004018C088C00BC0036430434909680A229B
:10AAD0005143404A8918C8803D4800680A214843CC
:10AAE000114640188088C00BC0036430384909689B
:10AAF0000A225143374A89188880FFF705FE20460D
:10AB000006E70246C82A08DA34481018884201DDF0
:10AB1000881A00E0314800B27047C82909DA2F4886
:10AB20000818904201DD881A01E02C48C04300B2A9
:10AB3000F2E7914201DB881A00E0501A03462748E9
:10AB4000834208D98A4203DD1046C83082B202E04F
:10AB50000846C83081B2881A00B2DDE7FFB581B07F
:10AB60000E4617461D460198FFF7B8FE0446642CB2
:10AB700009D100BF0420009000BF00221146FDF75C
:10AB8000C3FA00BF00BF0A216143124A89184888EE
:10AB90003146FFF7B6FF28800A2060430D49401870
:10ABA0004088002801DD012000E0002038700020EE
:10ABB000285E002804DD0A206043064940184680CC
:10ABC000204605B0F0BD0000FFFF00006C2800200B
:10ABD000D820002084240020D4200020FF7F000003
:10ABE00070B505462846FFF779FE0446642C09D166
:10ABF00000BF042600BF002211460420FDF784FA9E
:10AC000000BF00BF0A216143FE4A8918881CFFF774
:10AC1000E9FD204670BDF0B587B004460D46FEF74D
:10AC200096FD06460F460020059058E004E0F648E1
:10AC300000881438F4490880F34800881428F6DAAC
:10AC4000F14800881C214843F049401880690028D9
:10AC50003DD0ED4909881C225143EC4A881801F087
:10AC60002AFC3B46A2196B41101A8B412FD30021BD
:10AC70000491A1192846784102910390E248008886
:10AC80001C214843E1494018019004A9039B029A02
:10AC9000FEF7F5FE6846007C002817D0DA490988DF
:10ACA0001C225143D94A89188869FFF7F5FA0390A5
:10ACB0000398002808D1D44909881C225143D34A5B
:10ACC0008818FEF7D6FE00E00CE000BF00BFCE48BB
:10ACD0000088401CCC4908800598401C05900598C8
:10ACE0001428A3D300BF2046294600F002F807B07D
:10ACF000F0BDF0B585B0FEF72AFD0290FEF72AFD03
:10AD0000019100900021C9430C460D46C0480088BF
:10AD100087B200BF0A207843BA4940180689142E2A
:10AD200017D01C207043B94940188069002810D002
:10AD30001C217143B54A881801F0BDFB001BA941D5
:10AD400007D21C217143B14A881801F0B4FB0446B4
:10AD50000D460A207843AB494018808847047F0C91
:10AD6000AC4800688742D5D12A4600990198611AFB
:10AD7000824105D20298211AA74A0120FEF7D0F895
:10AD800005B0F0BD70B504460D46002C05D0002D71
:10AD900003D020782978884201D0012070BD207826
:10ADA000C21F294608312046083001F06DFB0028FB
:10ADB00001D00120F2E70020F0E710B504469748E3
:10ADC000844202D39648844201D9072010BD032251
:10ADD0007D2109012046FEF700FE0020F6E770B550
:10ADE00006463046FFF7E9FF0546002D01D028460C
:10ADF00070BD00240EE01C216143844A88180022A3
:10AE00001346FEF70DFE00211C2060437F4A801888
:10AE10008161641C142CEED3002046E00022D24352
:10AE20000A214143774B5A5200220A214143C91853
:10AE30004A800A2141431A468918C9880122D2034F
:10AE400091430A224243D218D1800A2141431A4633
:10AE5000891889880122D20391430A224243D218D9
:10AE6000918014220A214143C9180A810A214143D1
:10AE70001A468918C988C90BC903421E5204520CCC
:10AE800011430A224243D218D1800A2141431A4673
:10AE900089188988C90BC903421C5204520C1143FA
:10AEA0000A224243D2189180401C6428B6D3002065
:10AEB00057490860632057490860554800680A21CF
:10AEC000484350494018C088C00BC0036430504903
:10AED00009680A2251434B4A8918C8804D480068C6
:10AEE0000A214843114640188088C00BC0036430D3
:10AEF000484909680A225143424A8918888001203A
:10AF000048490870002073E77FB504460D460020CD
:10AF1000694608704048019002946846FFF7ABFB11
:10AF200004B070BDF0B51FB488B03E48007800286A
:10AF300002D105200DB0F0BD089800F084FB074653
:10AF4000002F01D10520F5E7002107910691F8793E
:10AF5000B9790002084304907879397900020843EE
:10AF600006AB07AA03900499FFF7F8FD05900A21A4
:10AF700005984843234940180489FEF7E8FB054635
:10AF80000E4668461821415E002916DA142C12D0AC
:10AF90000B990A982A1830464841029203901C20C7
:10AFA00060431A4940180190039BFEF750FD0020B2
:10AFB0000146FFF7A9FF0220BCE76846008B002886
:10AFC00053D1142C01D10320B4E7F879B9790002E8
:10AFD0000843002838DD6846007F002834D01C2153
:10AFE00061430A4A8918886900F02DFB39460490AC
:10AFF000FFF7C8FE002827D00B990A982A18304678
:10B00000484111E084240020DE2000206C2800202C
:10B01000D4200020D820002017AC010088130000A5
:10B0200000879303DC200020029203901C206043E1
:10B03000F94940180190039BFEF709FD00200146E5
:10B04000FFF762FF042075E70B990A982A1830462B
:10B050004841029203901C206043EF494018019040
:10B06000039BFEF7C7FC032064E7142C09D1FFF70C
:10B07000D6FB04460A2205995143E84A89180C81F7
:10B0800006E01C216143E44A8918886900F071FADE
:10B09000089800F04AFB089800F04BFA1C21614325
:10B0A000DD4A8918089888610B990A982A18304651
:10B0B0004841029203901C206043D74940180190F8
:10B0C000039BFEF7C4FC00200146FFF71DFF684606
:10B0D000007F002801D001202CE700202AE7F7B5E7
:10B0E00086B0CF480078002802D1052009B0F0BD15
:10B0F000FDF7FEFE05460026FEF729FB40197141CB
:10B10000039102900698FFF76BFD07460A207843EB
:10B11000C24940180489142C13D1FFF780FB044660
:10B120001C216143BC4A89180846183000F0E0F938
:10B13000002801D10520D9E70A207843B7494018F3
:10B140000481089800900A207843B4494018428846
:10B150001C206043B049401880690190079B069904
:10B1600000F03AFA04900498002801D00520BDE7C9
:10B170001C216143A84A8818FEF7A5FC0A207843E1
:10B18000A6494018408801280BD1002005901C20BA
:10B190006043A14940180190039B029AFEF740FCCE
:10B1A0000AE0012005901C2060439B494018019053
:10B1B000039B029AFEF74BFC28463146FFF7A4FE9C
:10B1C000059893E710B564200021FFF79DFE10BDA0
:10B1D000F7B5154692480078002801D10820FEBD39
:10B1E0000098FFF761FB0646642E01D10520F6E7C3
:10B1F0000A207043894940180789142F06D01C2063
:10B200007843854940188069002801D10520E6E788
:10B210001C217943804A8918886900F014FA044691
:10B2200029882078C01F814202DA2078C01F288038
:10B230002A8821460831019801F0FBF80020CEE76A
:10B2400070B506460D4676480078002801D10820E2
:10B2500070BD3046FFF728FB0446642C01D1052061
:10B26000F6E70A2060436D49401880880121C90330
:10B270008843E9030122D203114008430A216143B4
:10B28000664A891888800020E2E770B505460E46B8
:10B2900063480078002801D1082070BD61488542CC
:10B2A00001D11020F9E72846FFF718FB0446642C6B
:10B2B00001D10520F1E70A206043584940188088F1
:10B2C000C00B30700020E8E7F1B586B05448007834
:10B2D000002802D1082007B0F0BDFDF709FE0546A1
:10B2E0000026FEF734FA4019714105910490069842
:10B2F000FFF7F4FA07460A207843484940180489C2
:10B30000142C3DD1FFF78BFA04461C216143424ABD
:10B3100089180846183000F0EBF8002801D1042005
:10B32000D9E7002000901C2060433B494018806909
:10B3300000231A460290069900F04EF903900398F4
:10B3400000280ED01C216143334A8918886900F017
:10B3500010F900211C2060432F4A801881610320CE
:10B36000B9E70A2078432D49401804811C20604326
:10B37000294940180290059B049AFEF751FB05E00D
:10B380001C216143244A8818FEF79DFB284631465C
:10B39000FFF7BAFD00209EE770B50646204800780A
:10B3A000002801D1082070BD3046FFF77DFA044621
:10B3B000642C01D10520F6E70A20604317494018A4
:10B3C0000589142D05D01C216943134A8818FEF7FE
:10B3D00077FB0020E7E7F8B507460C4610480078F1
:10B3E000002801D10820F8BD0E48874201D1102065
:10B3F000F9E73846FFF772FA0546642D02D10020BE
:10B400002070F0E70A206843044940180689142E8A
:10B410000AD100202070E6E76C2800208424002058
:10B42000DC200020FFFF00001C217143274A881800
:10B43000FEF723FA20700020D5E770B505460E46CA
:10B4400023480078002801D1082070BD214885429A
:10B4500001D11020F9E72846FFF740FA0446642C92
:10B4600001D10520F1E70A2060431B494018C0883C
:10B470000121C9038843F1030122D203114008438B
:10B480000A216143144A8918C8800020DDE770B59D
:10B4900005460E460E480078002801D1082070BDF0
:10B4A0000C48854201D11020F9E72846FFF716FA2B
:10B4B0000446642C01D10520F1E70A2060430649C7
:10B4C0004018C088C00B30700020E8E76C280020CE
:10B4D000DC200020FFFF000084240020002003E087
:10B4E0000021994A1154401C1728F9D3704770471E
:10B4F00070B5044600210EE09348405C002809D155
:10B500000120914A505428204843904A80182060D6
:10B51000012070BD491C1729EED300BF042500BFD0
:10B52000002211460420FCF7EFFD00BF00BF002001
:10B53000EFE770B505468549681A282100F0F6FE48
:10B540000446172C01D9002070BD7F48005D401CC7
:10B55000C0B27D490855002809D100BF042600BFAC
:10B56000002211460420FCF7CFFD00BF00BF0120E0
:10B57000EAE770B505467549681A282100F0D6FE3D
:10B580000446172C01D9002070BD6F48005D0028CB
:10B5900000D1F9E76C48005D401E6B490855012059
:10B5A000F2E77CB50446684671DF0546002D01D000
:10B5B00028467CBD20784021884369460978890166
:10B5C0004022114008432070062200A90131E01CEE
:10B5D00000F02FFF0020ECE7FFB581B005461F46C5
:10B5E0000A9E002D02D10E2005B0F0BD2C46093474
:10B5F000172E01DD0920F7E72846FFF7D2FF304676
:10B600000E306870287800090001801C2870F01D39
:10B610002070162060704E48A070000AE0700298FA
:10B620002071000A60710398A071000AE071002E79
:10B6300007DD002F05D0324639462046083000F09D
:10B64000F8FE0020D0E70246002A00D170471146DC
:10B6500009310AE00878401C4301181A09181046FD
:10B660002830814201D30020F0E748781628F1D134
:10B67000C8788B7800021843354B9842EAD1087895
:10B680001E2801DD0020E1E70846DFE730B504466B
:10B690002046FFF7D8FF0546002D01D10B2030BD15
:10B6A0002046093085420ED02878401CC1B20020C7
:10B6B00004E02B5C224609321354401C8842F8D324
:10B6C0002546093500BF2878C01D60700020E6E7D8
:10B6D00030B505462846FFF7B6FF0446002C01D1D9
:10B6E0001C4830BD6079217900020843F9E7024621
:10B6F0001146093110E04878162806D1C8788B78B1
:10B7000000021843124B984201D00120704708787C
:10B71000401C4301181A09185078C01F13460933FA
:10B72000C0188842E7D80020F0E710B5044620464C
:10B73000FFF7DDFF002802D02046FFF7A7FF2046D5
:10B74000FFF72FFF10BD0000342E00209C2A0020A0
:10B75000E4FE0000FFFF00000748026803210A43DF
:10B7600002600648804706480047FEE7FEE7FEE71E
:10B77000FEE7FEE7FEE700002405004029B80100CF
:10B78000C180010032483349086070473248008C5C
:10B79000C0B2012812D13048808C0007000F002869
:10B7A0000CD12D48806AF0210840402806D12A4853
:10B7B000C06A0840002801D1012070470020FCE742
:10B7C0002548008CC0B201282CD12348808C00076A
:10B7D000000F002826D12048806AF0210840002868
:10B7E00006D11D48C06A0840002801D101207047D9
:10B7F0001948806AF0210840102806D11648C06A0E
:10B800000840002801D10120F1E71348806AF021A7
:10B810000840302806D11048C06A0840002801D1ED
:10B820000120E4E70020E2E710B5FFF7C9FF002898
:10B8300005D00A480A494860C8130A498861FFF7D9
:10B84000A5FF002802D001200749886010BD000034
:10B850000024F400E0200020C00F00F0DFFF07C04C
:10B8600000050040006C004000060040F7B584B0C1
:10B8700004460F4606980678B01C1F2803DC607843
:10B88000801C1F2802DD0C2007B0F0BD1F20801B8C
:10B89000801E85B20295B11C781802A97DDF039045
:10B8A0000398002801D00398EEE72078022808D1F9
:10B8B00068460089A84204DC092001906846058991
:10B8C0000BE0082001906078002804D06078A8423E
:10B8D00001DC657801E068460589681CC2B2304623
:10B8E000711CCEB23A543046721CD6B2019939540A
:10B8F00006980178A81C0818C1B2069801700020AB
:10B90000C2E7F8B505460C462078001D1F2801DD6A
:10B910000C20F8BD684679DF0646002E01D030467F
:10B92000F7E703212278501C2070A95419212278AE
:10B93000501C2070A954207841196846008800F0F6
:10B940005EFA2178401820700020E2E730B5034607
:10B950001078C01C1F2801DD0C2030BD0224157892
:10B96000681C10704C550A241578681C10704C55D2
:10B970001578681C10704B550020EEE7FFB587B0B6
:10B9800006461D46109C0020069020780590002752
:10B9900047E0B900706841180A8868460281498802
:10B9A0004181002203A902A865DF049004980028C1
:10B9B00002D004980BB0F0BD6846017B0998814223
:10B9C0002ED10698002801D0002000E0022001902E
:10B9D00020786946097B4118019808181F2801DD65
:10B9E0000C20E7E70698002809D12078401C207039
:10B9F0002278511C08982170A854012006902078C4
:10BA0000421903A902A865DF04900498002801D018
:10BA10000498CFE720786946097B4018207000BF62
:10BA20007F1C3088B842B4DC0698002806D0217804
:10BA30000598401C081AC1B2059829540020B9E79E
:10BA4000FFB581B0074615460A9E00960222384689
:10BA5000049B0299FFF792FF0446002C02D0204677
:10BA600005B0F0BD0096102229463846049BFFF72A
:10BA700085FF0446002C01D02046F1E70020EFE7C7
:10BA800001460888062808DB08881922D20190425E
:10BA900005DD0888DE4A904201D0072070474888BB
:10BAA000062808DB48881922D201904205DD488823
:10BAB000D74A904201D00720F0E70888D44A904244
:10BAC00008D04888904205D008884A88904201DD15
:10BAD0000720E3E70020E1E7F8B506460D461446E7
:10BAE0002078801D1F2801D90C20F8BD3046FFF7B3
:10BAF000C7FF0746002F01D03846F6E70521227818
:10BB0000501C2070A95412212278501C2070A95476
:10BB100022785119308800F072F92178401820708D
:10BB200022785119708800F06AF921784018207045
:10BB30000020DAE7F8B505460E4614462879801C41
:10BB4000C7B22078801CC0191F2801DD0C20F8BD69
:10BB5000781CC1B22278501C2070B154FF21227889
:10BB6000501C2070B15422789119288800F047F9B0
:10BB7000217840182070A88800280EDDA8680028C9
:10BB800001D10720E3E7AA8823789819A96800F073
:10BB900050FC20782979401820700020D7E7FEB5A6
:10BBA00007460E461446B86A002801D10720FEBD9C
:10BBB0000020019032E0B96A0C22019850430D1820
:10BBC0002879801CC0B200900098401CC1B2227835
:10BBD000501C2070B15416212278501C2070B15492
:10BBE00022789119288800F00AF9217840182070ED
:10BBF000A88800280EDDA868002801D10720D6E714
:10BC0000AA8823789819A96800F013FC207829796C
:10BC1000401820700198401CC0B201902C20C15DDA
:10BC200001988142C7DC0020C1E7F8B504460F4601
:10BC300015460026002028702078002809D02A46C2
:10BC400039462046FFF712FE0646002E01D0304648
:10BC5000F8BDA078002808D029463846FFF751FEE5
:10BC60000646002E01D03046F2E7E07800280ED0DC
:10BC700002212A78501C2870B95401212A78501CBE
:10BC80002870B954E1782A78501C2870B95460683B
:10BC900000280BD00020616808562A463946FFF775
:10BCA00055FE0646002E01D03046D1E720890028F7
:10BCB0000CDD3B4606220221204608300095FFF7A6
:10BCC000BFFE0646002E01D03046C1E7208A00287C
:10BCD0000CDD3B4607220321204610300095FFF77C
:10BCE000AFFE0646002E01D03046B1E7208B00287B
:10BCF0000CDD3B4615221421204618300095FFF735
:10BD00009FFE0646002E01D03046A1E7206A00289B
:10BD100009D02A463946206AFFF7DEFE0646002E85
:10BD200001D0304694E7606A002809D02A46394697
:10BD3000606AFFF7FFFE0646002E01D0304687E717
:10BD40002C20005D002809DD2A4639462046FFF7F1
:10BD500026FF0646002E01D0304679E7304677E7C9
:10BD60000146C87804221040002801D107207047FE
:10BD70000020FCE70146C878002801D00720704762
:10BD80000020FCE7F3B593B00D460021129111910C
:10BD90001398002814D01398FFF7E2FF0446002CF4
:10BDA00002D0204615B0F0BD12AA09A91398FFF7DA
:10BDB0003CFF0446002C01D02046F3E709AE00E02A
:10BDC0000026002D13D02846FFF7D4FF0446002C90
:10BDD00001D02046E6E711AA01A92846FFF725FF72
:10BDE0000446002C01D02046DCE701AF00E000272C
:10BDF00010A803793A46017A304672DFD2E702464C
:10BE00000A70FF20000210400012487002207047A4
:10BE1000FFFF000070B506460C4615462946204631
:10BE2000C046C04670BDF8B559480078002800D11A
:10BE3000F8BD58480068002801D1012000E000202A
:10BE4000054655480068002801D1012000E0002087
:10BE5000064600BF002D14D1684651DF0446052C6C
:10BE600001D101250CE0002C06D000BF00221146B4
:10BE70002046FCF749F903E04649009809688847DD
:10BE800000BF002E1AD145480088009069464448FA
:10BE9000006861DF0446052C01D101260DE0002C6D
:10BEA00006D000BF002211462046FCF72DF904E021
:10BEB0003B48006838490968884700BF002D02D018
:10BEC000002E00D000E0C5E700BF00BFB0E7FFB51F
:10BED00081B00C4616461F46002C02D1072005B043
:10BEE000F0BD20468107890F002901D1012100E022
:10BEF0000021002901D10720F1E7294804602748E3
:10BF00000680284807602849019810DF0546002D63
:10BF100001D02846E3E701201D49087016202EDFD6
:10BF2000DDE710B511DF0446002C01D0012000E050
:10BF3000002017490870204610BD0146002901D194
:10BF40000E207047144801600020FAE701460029DE
:10BF500001D10E2070470F4801600020FAE770B54C
:10BF600010480068002810D00E480068804704463A
:10BF700000BF2546002D06D000BF002211462846EE
:10BF8000FCF7C2F800BF00BF01E0FFF74CFF70BD37
:10BF9000E8200020F8200020F4200020F0200020DD
:10BFA000EC200020E420002015BE01000146CE4810
:10BFB00001600068002801D0002070470E20FCE7D7
:10BFC0000146CA480160002070470146C848016028
:10BFD0000020704770B50446002C01D10E2070BDC2
:10BFE000C3480068000205210907072212028918C8
:10BFF000226892008850BD4800688000052109072A
:10C00000072212028918E268920088500020052158
:10C0100009070722120289186268920088500021DD
:10C0200005200007072212028018A26892008150A2
:10C03000B049E0684861A06888606068086120686D
:10C04000C86000208863AB49403188600025002625
:10C05000207C002806D0012806D0022806D003281C
:10C0600008D105E0002507E0022505E0042503E0EE
:10C07000062501E0072600BF00BF002E01D0304694
:10C08000ADE7607C00280BD101202843994940315D
:10C090004861A07CC861E07C9649C03108600AE034
:10C0A000944840304561A07C92494031C861E07CB1
:10C0B0009049C031086000208F49486088620420A0
:10C0C0008E49086000208E4908700321042000F08A
:10C0D00081F80420012181408A4A116000BF8A480A
:10C0E0008A494860042001218140894A116000BFCB
:10C0F000022080490860304671E710B50446804848
:10C10000047000F09EF810BDFFB581B005460E46E4
:10C110001746002D01D0002E02D10E2005B0F0BD33
:10C1200077480078002806D0012814D0022804D0CF
:10C13000032812D100E000BF00BF764805607648B2
:10C14000066076480760764904980860002401205C
:10C15000FFF7D3FF03E0082401E0032400BF00BF82
:10C160002046DBE710B56448806A002820D0002014
:10C170006149886262480078012817D165480068E3
:10C180005C4940314860644800685A4948636448E3
:10C190000068886361480068564940318860012022
:10C1A000604988620220FFF7A8FF00E000BF00BFDF
:10C1B0005148406800280CD000204F494860504842
:10C1C0000078022803D10320FFF797FF00E000BFAB
:10C1D00000BF10BD10B5002819DA534A03071B0F22
:10C1E000083B9B089B00D2588307DC0EFF23A3402B
:10C1F0009A438B071B0E8407E40EA3401A434A4B55
:10C200000407240F083CA408A4001A5118E0404A6F
:10C2100003231B02D21883089B00D2588307DC0E2D
:10C22000FF23A3409A438B071B0E8407E40EA34011
:10C230001A43374B032424021B198408A4001A5103
:10C2400010BD3EB52E480078012804D0022806D043
:10C25000032845D121E001203249486241E0002015
:10C26000694608700190029000BF1F4800680028CE
:10C2700001D0012000E000200446002C06D100BFC0
:10C28000002211461046FBF73FFF00BF00BF164BD0
:10C29000684607C81B68984723E001206946087074
:10C2A0001448C06B019013484030C068029000BF32
:10C2B0000D480068002801D0012000E0002004465D
:10C2C000002C06D100BF002211461046FBF71CFFD0
:10C2D00000BF00BF044B684607C81B68984700E0D2
:10C2E00000BF00BF3EBD000018210020FC20002040
:10C2F0000021002000450040004100400042004075
:10C300001421002080E200E002040000004300400D
:10C3100000E100E004210020082100200C21002081
:10C3200010210020004000401CED00E030B50B461D
:10C33000014600202022012409E00D46D5409D42FF
:10C3400005D31D469540491B254695404019154685
:10C35000521E002DF1DC30BDF0B51FB406460020A2
:10C3600082B005464024019100901BE001992246CD
:10C370000F46304600F0D5F8049A059B801A994183
:10C3800010D310461946224600F0BBF8361A8F41EA
:10C390000197224601200021009F00F0B2F83818D2
:10C3A0004D4100902046641E0028DFDC019B009870
:10C3B0002946324607B0F0BDF0B51FB486B0002064
:10C3C0000090019002900698069980B20490079818
:10C3D000090C02040014114307900027089D0998D6
:10C3E00006913E463C4603900398A9B20204000C15
:10C3F000039004982D0C154348430021224600F079
:10C4000080F8C719714110340E46402CECDB3846D9
:10C41000029A00F076F8009A019B8018009059412A
:10C4200002980191103002904028CCDB00980BB0AC
:10C43000F0BD03460B439B0703D009E008C9121F58
:10C4400008C0042AFAD203E00B780370401C491C90
:10C45000521EF9D27047D2B201E00270401C491E50
:10C46000FBD270470022F6E710B513460A46044691
:10C470001946FFF7F0FF204610BD421C0178401C12
:10C480000029FBD1801A704730B5044600200346CE
:10C4900000E05B1C934203D2E05CCD5C401BF8D013
:10C4A00030BD0321001D401E037812021A43491EAD
:10C4B000F9D510467047034610B508330722040E1D
:10C4C000090221435B1E1C7800022043521EF6D550
:10C4D00010BD034603220870000A491C521EFAD5FB
:10C4E0001846704770B504460D46072310700E06B7
:10C4F000000A3043090A521C5B1EF7D52046294624
:10C5000070BD10B5202A04DB0146203A914000207E
:10C5100010BD914020239C1A0346E34019439040EC
:10C5200010BD10B5202A04DB0846203AD040002177
:10C5300010BD0B46D340D0402024A21A914008439E
:10C54000194610BD064C0125064E05E0E36807CCF0
:10C550002B430C3C98471034B442F7D3FBF7B4FD9F
:10C56000A0C70100C0C701000FB410B504A9074B54
:10C5700002AA039800F02AF8044602A9002000F05D
:10C58000CDF8204610BC08BC04B018471DC70100F8
:10C5900030B47446641E2578641CAB4204D3635DDA
:10C5A0005B00E31830BC18471D46F8E702E008C8F6
:10C5B000121F08C1002AFAD170477047002001E01D
:10C5C00001C1121F002AFBD170470000FFB58DB0DA
:10C5D0000446002506E025280AD0109A0F999047B6
:10C5E000641C6D1C20780028F5D1284611B0F0BDE0
:10C5F00000270121484A009700E00743641C237884
:10C600000846203B98401042F7D120782E2817D1B9
:10C61000042007436078641C2A280CD10E98641CFF
:10C6200002C800910E900BE000990A225143303964
:10C630004018641C00902078014630390929F3D94C
:10C6400020780028D1D0642808D0692806D0752821
:10C650001ED0109A0F9990476D1C5BE00A200E992E
:10C66000019001C90E91002802DA40422D2102E01A
:10C67000390504D52B216A461172012103E0F9071F
:10C6800004D02021F7E70BAE0B910DE00021FAE773
:10C690000A200E99019001C90E91F7E70199FFF761
:10C6A00045FE3031761E31700028F7D103A8801B7B
:10C6B00020300190780701D5009801E0012000901A
:10C6C0000199884201DD401A00E000200027009017
:10C6D00006E002A8109AC05D0F9990476D1C7F1C60
:10C6E0000B988742F5DB04E0109A30200F999047B1
:10C6F0006D1C0099481E00900029F5DC05E030789B
:10C70000109A761C0F9990476D1C0199481E019054
:10C710000029F4DC641C65E7092801000A68531C41
:10C720000B6010707047F8B504460F46A168206989
:10C730004018E168884201D10420F8BDEFF3108071
:10C74000C507ED0F72B6A168491EE0680840616830
:10C750004843216846186069002804D039463046AD
:10C760006269904704E0394630466268FFF761FE2F
:10C77000E068401CE060002D00D162B60020DCE7DC
:10C7800011000000020000001A000000500000002C
:10C790001ECD00008CB9A88B82D851FDA1771E2A2E
:10C7A000C0C70100002000201C010000ACC5010032
:10C7B000DCC801001C21002034150000BCC50100AC
:10C7C0000000000000000000000000000000000069
:10C7D00040010000000000000C07100000000000F5
:10C7E0000300000000000000000000000000000046
:10C7F0000000000000000000000000000000000039
:10C8000001000000000100001027000010270000B8
:10C8100000000000000100001027000050C30000CD
:10C820000000000000000000000000000000000008
:10C8300000000000000000000000000000000000F8
:10C8400000000000000000000000000000000000E8
:10C8500010270000000000000000000000000000A1
:10C8600000000000000000000000000000000000C8
:10C8700000000000000000000000000000000000B8
:10C88000FFFF0000000000000000000000000000AA
:10C890000000000000000000000000000000000098
:10C8A0000024F40000000000000000000000000070
:10C8B0000000000000000000000000000000000078
:10C8C0000000000000000000000000000000000068
:0CC8D0000000000000000000000000005C
:04000005000180C1B5
:00000001FF
